:03000000020400F7
:0C040000787FE4F6D8FD758143020447C4
:0607B1001207BF0207065B
:0E0771001207B17590F112061712050380F8F9
:0D000600C2B5120578D2B412057CC2B42236
:0D077F00D2B5120578D2B412057CC2B422A6
:10073900ED70048F0B8005EF2440F50BE50B448029
:04074900FF020006A5
:100675008B088A09890A120739AB08AA09A90A123F
:1006850003726013050AE50A7002050914F91203DD
:0806950072FF12077F80E222D0
:10074D007F381200067F0C1200067F061200067F0E
:04075D00010200068F
:08057800C2B68F807F017E00F6
:10058000D3EF9400EE940040257D26EDD3940074C3
:1005900080948040127C82ECD394007480948040DC
:0E05A000031C80F31D80E4EF1F70D51E80D277
:0105AE00222A
:10076100F1F3F2F6F4FCF8F9F9F8FCF4F6F2F3F12E
:0706C400E51E93F5907F0194
:1006CB00EFD394007480948040127E78EED3940024
:0C06DB007480948040031E80F31F80E4B4
:0106E70022F0
:1005AF00E4F51CF51DE4F51EC3E51E940874809454
:1005BF0080500A9007611206C4051E80EB051DE5E9
:1005CF001D7002051CC39408E51C6480948240D5FD
:0405DF007590F12200
:1005E300E4F51CF51DE4F51EC3E51E940874809420
:1005F30080500A9007691206C4051E80EB7590F1BE
:10060300051DE51D7002051CC39408E51C64809458
:040613008240D2222D
:0607AA00014200014301C1
:0B078C00D28AD2AAD288D2A8D2AF2213
:0307BF0002078CA2
:030003000207B73A
:0407B7007542013254
:030013000207BB26
:0407BB00754202324F
:10061700E54364017013C296D295E54264017009FF
:100627001205AF754302E4F542E54364027013D245
:1006370096C295E542640270091205E3754301E429
:03064700F5422257
:0807A2002564002E0020250053
:10072200D2947F021207C2C2947F147E001206E89E
:07073200D2947F0D0207C203
:10064A00E4F515C3E515940874809480501A309423
:10065A00FD7F081207C2E51625E0F516309402055B
:0A066A00162094FD051580DBAF1685
:010674002263
:10048C00120722D29420946E3094FD7F281207C25A
:10049C0012064A7508008F0912064A750A008F0B5E
:1004AC0012064A750C008F0D12064A750E008F0F3E
:1004BC0012064A8F147F191207C2E509250BFFE5B6
:1004CC0008350AFEE50D2FFFE50C3EFEE50F2FFF6C
:1004DC00E50E3EFE7C00EFB51410ECB5060C85095C
:1004EC0010850B11850D12850F13753A0085103B85
:0604FC00753C0085113D76
:0105020022D6
:0307C200DFFE2235
:1006E800D3EF9400EE940040147D6E7C00ED1D70F5
:0D06F800011CED4C70F7EF1F70E61E80E353
:0107050022D1
:100503007F147E001206E812048C750BFF750C072E
:10051300750DA2853A0E853B0F7B007A0079221276
:100523000072750BFF750C07750DA2853C0E853D9A
:100533000F7B007A0079281200727F0D7E0012066D
:10054300E87B007A0079227D017F061206757BFF26
:100553007A0779A57D017F081206757B007A0079F9
:10056300287D017F091206757BFF7A0779A77D0134
:050573007F0A0206757D
:0B0797004741533A0054656D703A0072
:1007060012074D7BFF7A077997E4FDFF1206757B8A
:0C071600FF7A07799C7D01E4FF02067564
:10040C00020771E493A3F8E493A34003F68001F28E
:10041C0008DFF48029E493A3F85407240CC8C333F1
:10042C00C4540F4420C8834004F456800146F6DFC0
:10043C00E4800B01020408102040809007AAE47E9F
:10044C00019360BCA3FF543F30E509541FFEE493B5
:10045C00A360010ECF54C025E060A840B8E493A37C
:10046C00FAE493A3F8E493A3C8C582C8CAC583CAA7
:10047C00F0A3C8C582C8CAC583CADFE9DEE780BE5F
:0107B0000048
:10037200BB010689828A83E0225002E722BBFE0289
:09038200E32289828A83E49322BC
:10001600E517240BF8E60517227808300702780B57
:10002600E475F0011203CA0203722000EB7F2ED2A0
:10003600008018EF540F2490D43440D4FF30040BC2
:10004600EF24BFB41A0050032461FFE518600215BF
:1000560018051BE51B7002051A30070D7808E475B4
:10006600F0011203CAEF0203B802069D7403D20719
:100076008003E4C207F5178B088A09890AE4F51894
:10008600F51AF51BE51860077F2012005180F575FB
:1000960019FFC201C200C202C203C205C206C208DB
:1000A60012001FFF700D3007057F00120062AF1BA4
:1000B600AE1A22B4255FC2D5C20412001FFF24D097
:1000C600B40A00501A75F00A781830D50508B6FF3C
:1000D6000106C6A426F620D5047002D20380D924D0
:1000E600CFB41A00EF5004C2E5D204020262D20174
:1000F60080C6D20080C0D20280BCD2D580BAD205DA
:1001060080B47F201200512002077401B518004008
:10011600F1120016FF12005102008AD208D20680A0
:1001260095120016FB120016FA120016F94A4B70C9
:100136000679337A037BFF20022EE518602A7E00BB
:100146008E8275830012038B60060EEE651970F0C1
:10015600C2D5EBC0E0EAC0E0E9C0E0EE1202A9D0E9
:10016600E0F9D0E0FAD0E0FB120372FF60AAEBC020
:10017600E0EAC0E0E9C0E0120051D0E02401F9D085
:10018600E03400FAD0E0FBE5190460DCD519D9802B
:10019600877BFF7A0279A5D202809C79108002794A
:1001A60008C206C2088008D2D5790A8004790AC234
:1001B600D5E519047002F519E4FAFDFEFF120016E2
:1001C600FC7B08200113120016FD7B1030000A127A
:1001D6000016FE120016FF7B20EC3382D592D55016
:1001E60013C3E43000069FFFE49EFEE42001039D56
:1001F600FDE49CFCE4CBF8C201EC700CCFCECDCC78
:10020600E824F8F870F38017C3EF33FFEE33FEED02
:1002160033FDEC33FCEB33FB994002FB0FD8E9EBE3
:10022600300105F8D0E0C448B201C0E00AEC4D4EFA
:100236004F78207B0070C2EAB5190040BCC0E012BE
:1002460002ABD0F0D0E0200104C4C0E0C4B201C0CB
:10025600F012003AD0F0D5F0EB02008A1203DA0170
:10026600275301A15800F84C00F44201A54F01ADF7
:0F0276004401AD49010D4301B35501974601976E
:100285004501974703535000FC2D01002E01232BF8
:10029500010423012120033C2A00BC480000011B66
:1002A5003F3F3F00790AA2D5200314300509B91054
:1002B500020404B9080104A2D52006025001042055
:1002C50002689202B518005034C0E07F203003194F
:1002D5007F30A20272067205500F120302C202C2DB
:1002E50006C205C2087F30800F300503E9C0E01261
:1002F5000051300503D0E0F9D0E0B518CC30051732
:100305007F30B9100C1200517F583004077F788078
:1003150003B908031200513002057F2D0200517FF9
:10032500202008F87F2B2006F322920280CF286E2A
:10033500756C6C2900D2011200163001F8C20178E3
:100345001830D50108F60200BC2D5043495812005B
:10035500162403B405004001E490034E93120042B5
:0D036500743A120042D2037518040201A17F
:10038B00BB010CE58229F582E5833AF583E0225027
:10039B0006E92582F8E622BBFE06E92582F8E22271
:0D03AB00E58229F582E5833AF583E493228B
:1003B800BB010689828A83F0225002F722BBFE0124
:0203C800F3221E
:1003CA00FAE6FB0808E6F925F0F618E6CA3AF62234
:1003DA00D083D082F8E4937012740193700DA3A3B2
:1003EA0093F8740193F5828883E4737402936860C6
:0603FA00EFA3A3A380DFC6
:10069D00EFB40A07740D1206A8740A309811A899C0
:1006AD00B8130CC2983098FDA899C298B811F630BD
:0706BD0099FDC299F5992295
:00000001FF
