:030000000212BE2B
:0C12BE00787FE4F6D8FD7581210213054D
:1018CE0053494D206973206C6F6164696E672E2ECB
:0C18DE00004741533A0054656D703A0019
:10169D0012191E1219E21218EA7BFF7A1879CEE49C
:1016AD00FDFF12162F120F2D7F011200067BFF7A00
:1016BD001879DFE4FDFF12162F7BFF7A1879E47D90
:0616CD0001E4FF02162FEC
:0E19C10012169D7590F1121545120C7980F8E2
:0D000600C2B5121666D2B412166AC2B42238
:0D001600D2B5121666D2B412166AC2B42218
:10190600ED700678D4EFF28006EF244078D4F278B2
:08191600D4E24480FF02000648
:10162F0078D1EBF208EAF208E9F212190678D1E262
:10163F00FB08E2FA08E2F912061B601A78D1E2FB06
:10164F000808E2F92401F218E2FA3400F212061B3C
:07165F00FF12001680D722E4
:101977007F381200067F0C1200067F061200067FD2
:041987000102000653
:08166600C2B68F807F017E00F7
:10166E00D3EF9400EE940040257D26EDD3940074C4
:10167E0080948040127C82ECD394007480948040DD
:0E168E00031C80F31D80E4EF1F70D51E80D278
:01169C00222B
:1019B100F1F3F2F6F4FCF8F9F9F8FCF4F6F2F3F1CC
:06182E00EF93F5907F012D
:10183400EFD394007480948040127E78EED39400A9
:0C1844007480948040031E80F31F80E439
:011850002275
:1014C500C2A6E47800F208F2E47802F27802E2FFBC
:1014D500C3940874809480500B9019B112182EE2B1
:1014E50004F280E87801E22401F218E23400F2C344
:1014F50008E2940818E26480948240CCD2A67590E4
:02150500F122D1
:10150700E47800F208F2E47802F27802E2FFC3948A
:101517000874809480500B9019B912182EE204F2C7
:1015270080E87590F17801E22401F218E23400F2C4
:0E153700C308E2940818E26480948240C9223E
:1013D6008C223137383635363737383833009C0566
:1013E60047617320666C616D656F75742068617AFC
:1013F600617264207761726E696E67008104008194
:021406002101C2
:0B19CF00D28AD2AAD288D2A8D2AF22BE
:0319E2000219CF18
:0300030002194D92
:10194D00C0E0C0D075D000C00078047401F2D000A2
:05195D00D0D0D0E03203
:030013000219626D
:10196200C0E0C0D075D000C00078047402F2D0008C
:05197200D0D0D0E032EE
:101545007821E264017017C296D2957804E26401AD
:10155500700C1214C578217402F2E47804F2782133
:10156500E264027017D296C2957804E26402700CA8
:0D15750012150778217401F2E47804F222C7
:10193600D2947F021219E5C2947F147E0012189287
:07194600D2947F0D0219E5A8
:0515F700E4F208EFF230
:1015FC00E478DEF278DEE2C3940874809480501EA6
:10160C003094FD7F081219E578DFE225E0F2309482
:10161C0003E204F22094FD78DEE204F280D678DF57
:02162C00E2FFDB
:01162E002299
:10122B00121936D2943094030212BD3094FD7F28EC
:10123B001219E51215FC78D11215F778D31215F7A0
:10124B0078D51215F778D71215F778DDEFF27F19ED
:10125B001219E578D3E2FE08E2FF78D2E22FFF18ED
:10126B00E23EFE78D6E22FFF18E23EFE78D7E2FC94
:10127B0008E2FD2FFFEC3EFE78DDE27A00B5071C9D
:10128B00EAB5061878D108E278D9F278D308E27873
:10129B00DAF278D508E278DBF208EDF278D9E2FFE2
:1012AB0078C6E4F208EFF278DAE2FF78C8E4F208E5
:0212BB00EFF250
:0112BD00220E
:0319E500DFFE2200
:10189200D3EF9400EE940040147D6E7C00ED1D7039
:0D18A200011CED4C70F7EF1F70E61E80E397
:0118AF002216
:04140800822E000030
:10185100E4FEEEC39408748094805015C2A1EF3069
:10186100E704D2A08002C2A0D2A1EF25E0FF0E8042
:01187100E195
:011872002253
:1017E400E4FBEBC3940C748094805015ED25E0FD6C
:1017F400EC33FCD2A1C2A130A504ED4401FD0B8061
:05180400E1AF05AE0498
:0118090022BC
:10199F00C2B7121851C2A100000000001217E4D202
:0119AF00B780
:0119B0002214
:101707007FE412199F782EEEF208EFF2FDAC06E4A3
:101717001201D17BE67A3F799C783F120026E4FBE1
:10172700FA7920784112012F12020A782EEEF20878
:03173700EFF222AC
:06140C00815A01815F001E
:10176900E4FDFFFEC297C2A2EDC394107480948079
:101779005015D2A2EF25E0FFEE33FE30A404EF446A
:0917890001FFC2A20D80E1D2971C
:011792002234
:1018B000D3EF9400EE940040147D727C00ED1D7017
:0D18C000011CED4C70F7EF1F70E61E80E379
:0118CD0022F8
:1015BD0078D1740BF2121769EF5404785EF2E2FDE4
:1015CD001313543FF2EF25E0FFEE33C4F854F0C887
:1015DD0068FEEFC4540F48FF7802CEC313CE13D864
:0915ED00F9FF785BEEF208EFF261
:0115F60022D2
:03141200816600F0
:10191E00759850D29CE4F587758920758DFD758B71
:08192E00FDD28ED2AFD2AC2233
:0819DA008F993099FDC299229A
:1016D30078E3EBF208EAF208E9F278E3E2FB08E2E6
:1016E300FA08E2F912061B601A78E3E2FB0808E243
:1016F300F92401F218E2FA3400F212061BFF121960
:04170300DA80D7228F
:10173A007863EBF208EAF208E9F27863E2F908E280
:10174A00FA08E278E6C9F208EAF208E9F27B017AD5
:0F175A000079EF1210D9E94A4B6002D322C32263
:10198B007E007F647D007B017A0079EF1207DFE434
:04199B007866F22256
:0300230002158241
:10158200C0E0C083C082C0D075D008C2AC30982001
:10159200C2987866E224EFF582E43400F583E59997
:1015A200F0E204F2E2C39464748094804002E4F2B4
:0B15B200D2ACD0D0D082D083D0E03289
:10134A0041540D0A004F4B0D0A0041542B4350499A
:10135A004E3F0D0A0052454144590041542B434D1A
:10136A0047463D310D0A0041542B43534D503D3100
:10137A00372C3136372C302C380D0A0041542B4388
:10138A005343533D2247534D220D0A0041542B43E8
:10139A004D47533D2200220D0A003E0041544400AD
:1013AA003B0D0A00000000000000000000000000E1
:1013BA000000000000000000000000000000000023
:0C13CA0000000000000000000000000017
:06141500847E00000000CF
:100F2D0012191E78DA74FFF2087413F208744FF276
:100F3D000812069E00000BB8121014EF64014E60EB
:100F4D000312179312180A78DA74FFF2087413F269
:100F5D0008745FF20812069E000003E878E1740A37
:100F6D00F27BFF7A13795412101FEF64014E600368
:100F7D0012179312180A78DA74FFF2087413F20834
:100F8D00744FF20812069E000003E878E1740AF22D
:100F9D007BFF7A13796512101FEF64014E60031207
:100FAD00179312180A78DA74FFF2087413F20874A2
:100FBD004FF20812069E00000BB878E1740AF27B1E
:100FCD00FF7A13797112101FEF64014E600312172F
:100FDD009312180A78DA74FFF2087413F208744F3A
:100FED00F20812069E000003E878E1740AF27BFF16
:100FFD007A13798612101FEF64014E600312179356
:07100D007F0A7E0002180EAD
:0A0E190078D1EBF208EAF208E9F2E2
:100E230078537C017D017BFF7A1379AE7E007F14BA
:100E33001205F57E007F147D007B017A0179531240
:100E430007DF78537C017D017BFF7A1379961207C4
:100E5300C278D1E2F908E2FA08E278DAC9F208EADC
:100E6300F208E9F27B017A01795312145978DA74A2
:100E7300FFF2087413F20874A0F27B017A0179532C
:100E830012145978DA74FFF2087413F20874A4F296
:100E93000812069E00000BB878E1740AF27B017A0F
:100EA30001795312101FEF64014E600312179378F8
:100EB300D4E2F908E2FA08E278DAC9F208EAF208B9
:100EC300E9F20812069E00000BB878E1740AF27882
:100ED300D4E2FB08E2FA08E2F912101FEF64014EB4
:100EE30060031217937E007F287D007B017A0179CE
:100EF300531207DF900153741AF0E4A3F078DA7405
:100F0300FFF2087413F208744FF20812069E0000F1
:100F1300271078E17405F27B017A01795312101FCF
:090F2300EF64014E600312179304
:010F2C0022A2
:0A1192007867EBF208EAF208E9F2D0
:10119C00087C007DFE7BFF7A1379C27E007F1412DF
:1011AC0005F57E007F147D007BFE7A00796A1207BC
:1011BC00DF786A7C007DFE7BFF7A1379A61207C26A
:1011CC007867E2F908E2FA08E278DAC9F208EAF29A
:1011DC0008E9F27BFE7A00796A12145978DA74FF06
:1011EC00F2087413F20874AAF27BFE7A00796A1280
:1011FC00145978DA74FFF2087413F208744FF20879
:10120C0012069E0000271078E1740AF27BFE7A0029
:0E121C00796A12101FEF64014E6003121793DF
:01122A0022A1
:1017930078DA74FFF2087413F208744FF208120631
:1017A3009E00000064121014EF64014E70031219BE
:0A17B300E87FC87E0012180E80D6F1
:0319E800020000FA
:0B10140078E1740AF27BFF7A13794A3E
:0A101F0078D7EBF208EAF208E9F2D4
:1010290012198BE478E2F278E1E2FF08E2C39F400B
:10103900030210D278D7E2FB08E2FA08E2F91216A5
:10104900D3787E12069E0000000078DDE2FC08E2FB
:10105900FD08E2FE08E2FF787EE2FB08E2F908E219
:10106900FA08E2CBF8C3120681504D7F647E001264
:10107900180E787EE2FC08E2FD08E2FE08E224642C
:10108900FFE43EFEE43DFDE43CFC787E12069278E6
:10109900DAE2F908E2FA08E278E6C9F208EAF208BF
:1010A900E9F27B017A0079EF1210D9E94A4B609A8B
:1010B90012198B7E007F0122787E12069E000000A5
:0F10C9000078E2E204F202103012198BE4FEFF0D
:0110D80022F5
:04180A007F0A7E00D3
:10180E00E4FDFCC3ED9FEC9E5015E4FBFA0BBB0010
:0F181E00010AEB647B4A70F50DBD00010C80E4FC
:01182D002298
:101873004741533A0054656D703A002564002020B7
:0F188300202020202020202020002E00202500C3
:10141B008C823137383635363737383833009CAA1B
:10142B0047617320666C616D656F75742068617AB6
:10143B00617264207761726E696E670082A800002A
:0D144B0082CE000081A70081D000818E00BC
:1018EA001219777BFF7A187973E4FDFF12162F7BA2
:0C18FA00FF7A1879787D01E4FF02162FB8
:100C790012170778A8EEF208EFF21215BD78CEEE3A
:100C8900F208EFF27F147E0012189212122B78D418
:100C990074FFF2087418F208747EF278A8E2FF086B
:100CA900E278D7CFF208EFF27BFE7A00798F12084B
:100CB900677F0D7E001218927BFF7A187981E4FD17
:100CC9007F0612162F7BFE7A00798FE4FD7F0612CC
:100CD900162F78D474FFF2087418F208747EF2782B
:100CE900C6E2FF08E278D7CFF208EFF27BFE7A007E
:100CF900799B12086778D474FFF2087418F20874A3
:100D09007EF278C8E2FF08E278D7CFF208EFF27BEB
:100D1900FE7A0079A11208677F0D7E001218927879
:100D2900D474FFF2087418F208747EF278CEE2FFE8
:100D390008E278D7CFF208EFF27BFE7A00799512B4
:100D490008677BFE7A007995E4FD7F0C12162F7BEC
:100D5900FE7A00799B7D017F0612162F7BFF7A1898
:100D6900798D7D017F0812162F7BFE7A0079A17D8E
:100D7900017F0912162F7BFF7A18798F7D017F0A6F
:100D890012162FD378A9E2949618E29400500B78A2
:100D9900C7E2945018E29400402C788EE2702D78C6
:100DA900217402F27804F2C2A378D474FEF20874B2
:100DB90000F20874AAF27BFE7A007982120E197881
:100DC9008E7401F28006E4788EF2D2A378CEE2FE28
:100DD90008E2FFD39450EE9400403478A77401F2EE
:100DE900E26401702AEF9423EE9400502278217472
:100DF90002F27804F2E478A7F278D474FEF2087467
:100E090000F20874AAF27BFE7A007982120E192286
:10002600EC4D6011E8497017ED33EC3304600DE4D4
:10003600FCFFFEFD22E933E8330470F80202761273
:10004600024158046009E4CC248150062850090274
:10005600028028400302027DC0E0EB4A7044B9806A
:1000660006D0E0FB02026CEF4E701CBD8008EBFF71
:10007600EAFEE9FD80EBE98DF0A4FEE5F002010F52
:10008600E9CDF9EAFEEBFFEF89F0A4FCE5F0CE89B5
:10009600F0A42EFFE435F0CD89F0A42DFEE435F072
:1000A6008067EF4E7005BD80D780C3EF8BF0A4ACA0
:1000B600F0EE8BF0A42CFCE435F0F8EF8AF0A42CDB
:1000C600E5F038FCE433CB8DF0A42CFCE5F03BF8EE
:1000D600EE8AF0A42CFCE5F038F8E433CF89F0A4DE
:1000E6002CFCE5F038CF3400CE89F0A42FFFE5F0E4
:1000F6003EFEE433C98DF0A42EFEE5F039CD8AF03C
:10010600A42FFFE5F03EFEE43DFD33D0E0FB5007B3
:100116000BBB000F020280EC2CFCEF33FFEE33FE2C
:06012600ED33FD0202585A
:10012C00020280EC5D046005E8590470030202765B
:10013C00120241580460F6EC4860F2EC7004FDFECB
:10014C00FF22C860DB2481C85009C39860025006A6
:10015C0002027D9850CAF582E9294B4A7005AB82A0
:10016C0002026C75F0007C1A7880C3EF9BEE9AED5E
:10017C0099400DC3EF9BFFEE9AFEED99FDE842F01E
:10018C00DC23ACF0D0E0FFD0E0FED0E0FDAB822071
:10019C00E7101BEB60BAEC2CFCEF33FFEE33FEEDFB
:1001AC0033FD020258E803F830E705C0F075F000A3
:1001BC00EF2FFFEE33FEED33FD40B830E7C280AADF
:1001CC0075F020800E75F010800575F0087D007EAE
:1001DC00007F003392D530D503120673EC334010F8
:1001EC00EF33FFEE33FEED33FDEC33FCD5F0ED22B7
:0E01FC00E5F0247EA2D513CC92E7CDCEFF22F3
:10020A00EDD2E7CD33EC3392D524814006E4FFFEEC
:10021A00FDFC22FCE4CFCECDCC24E0501174FF804B
:10022A00EDC3CC13CCCD13CDCE13CECF13CF0470E8
:07023A00F030D5DE0206736F
:10080B00E51024D4F8E205102278D130070278D411
:10081B00E475F0011206B702061B2000EB7F2ED207
:10082B00008018EF540F2490D43440D4FF30040BC5
:10083B00EF24BFB41A0050032461FFE511600215C9
:10084B00110514E5147002051330070D78D1E4750A
:10085B00F0011206B7EF0206610217BD7403D2074F
:10086B008003E4C207F51078D11206C7E4F511F541
:10087B0013F514E51160077F2012084680F57512F9
:10088B00FFC201C200C202C203C205C206C20812E5
:10089B000814FF700D3007057F00120857AF14AE18
:1008AB001322B4255FC2D5C204120814FF24D0B49E
:1008BB000A00501A75F00A781130D50508B6FF01F9
:1008CB0006C6A426F620D5047002D20380D924CF05
:1008DB00B41A00EF5004C2E5D204020B43D20180DC
:1008EB00C6D20080C0D20280BCD2D580BAD20580DD
:1008FB00B47F201208462002077401B5110040F1A5
:10090B0012080BFF12084602087ED208D206809509
:10091B0012080BFB12080BFA12080BF94A4B700664
:10092B00793A7A0C7BFF20022EE511602A7E008E2D
:10093B008275830012063460060EEE651270F0C2EB
:10094B00D5EBC0E0EAC0E0E9C0E0EE120BA3D0E0CB
:10095B00F9D0E0FAD0E0FB12061BFF60AAEBC0E077
:10096B00EAC0E0E9C0E0120846D0E02401F9D0E08B
:10097B003400FAD0E0FBE5120460DCD512D9808795
:10098B00D20280A2120B8660F7E5127001041202EC
:10099B008BA912600DE512600914F512120C2DEFE4
:1009AB0060F3EA30E702F404C3995077EAF42512B6
:1009BB000430E701E404F512800D120B8660C1EAE6
:1009CB000512251212028BEA78E7F230E701E425D3
:1009DB001204D5120420050114120BA3E4C0E0127B
:1009EB000C2D78E7E2601320E70714F212082E8033
:1009FB002204F2D0E014C0E07F0012082EE5126052
:100A0B00071208251512800B300503120825D0E0BC
:100A1B0002087ED0E00480C5120B8660A0E51204AC
:100A2B0012028B78E7EAF2E512200502600104243A
:0C0A3B0004120BA374FF04C0E0120C2D89
:100A470012082EE5122005026003120825D0E0B532
:100A570012E87F4512083878E7E27F2B30E7047FFA
:100A67002DF404C0E0120846D0E075F00A84C0F007
:100A770012082FD0E012082F02087E791080027921
:100A870008C206C2088008D2D5790A8004790AC24A
:100A9700D5E512047002F512E4FAFDFEFF12080B09
:100AA700FC7B0820011312080BFD7B1030000A1293
:100AB700080BFE12080BFF7B20EC3382D592D55032
:100AC70013C3E43000069FFFE49EFEE42001039D6C
:100AD700FDE49CFCE4CBF8C201EC700CCFCECDCC8E
:100AE700E824F8F870F38017C3EF33FFEE33FEED19
:100AF70033FDEC33FCEB33FB994002FB0FD8E9EBFA
:100B0700300105F8D0E0C448B201C0E00AEC4D4E10
:100B17004F78207B0070C2EAB5120040BCC0E012DB
:100B27000BA5D0F0D0E0200104C4C0E0C4B201C0DE
:100B3700F012082FD0F0D5F0EB02087E1206D0098C
:100B47001B530A825808EC4C08E8420A864F0A8E63
:100B5700440A8E490901430A945509C5460A2345A3
:100B6700098F470C5A5008F02D08F42E09172B0847
:100B7700F8230915200C432A08B0480000090FE59F
:100B870012B4FF0375120612080BFC12080BFD12B4
:100B9700080BFE12080BFF78E00202BA790AA2D509
:100BA700200314300509B910020404B9080104A28E
:100BB700D52006025001042002689202B5110050A8
:100BC70034C0E07F203003197F30A202720672051D
:100BD700500F120BFCC202C206C205C2087F30804A
:100BE7000F300503E9C0E0120846300503D0E0F9ED
:100BF700D0E0B511CC3005177F30B9100C1208467C
:100C07007F583004077F788003B9080312084630FD
:100C170002057F2D0208467F202008F87F2B20063B
:100C2700F322920280CF7F00B40700500524E0F83A
:100C3700E2FF22286E756C6C2900D20112080B3076
:100C470001F8C201781130D50108F60208B02D501D
:100C570043495812080B2403B405004001E4900CE3
:100C67005593120837743A120837D20375110402E4
:020C77000A82EF
:10024100E9D2E7C933E833F892D5EDD2E7CD33EC03
:0702510033FC5002B2D5227C
:10025800EC30E7100FBF000C0EBE00080DBD000407
:100268000BEB6014A2D5EB13FCED92E7FD2274FFB3
:10027800FCFDFEFF22E480F8A2D574FF13FC7D800C
:03028800E480EF20
:10028B00F920E72824F950037907E4F42402FB183A
:10029B00DBFDE224FB5014E9600DE4F218E204F2FA
:0F02AB00B40A08E4F2D9F57401F20A22C2D5228E
:1002BA00ED33EC3392D5FA602AB4FF33EDC2E77B13
:1002CA00FF60067A0279DFE4227A0279E820D5040F
:1002DA007A0279E3224E614E002B494E46002D499F
:1002EA004E4600E47A08F208DAFC7B00740722E83A
:1002FA00C0E0ECC0E0EDC0E0EEC0E0EFC0E0EA75BF
:10030A00F010A4CAABF075F04DA42BFBE435F0FC59
:10031A00EA2410FAEB34C5FBEC34D9FCEDC2E7FF52
:10032A0075F056A4F42411C5F0F434C58FF0A42A4C
:10033A00E5F03BE43CF220E7141204E5D0E0FFD0FC
:10034A00E0FED0E0FDD0E0FC12012F8014F404128C
:10035A0004E5D0E0FFD0E0FED0E0FDD0E0FC1200E2
:10036A0026D0E0F8E2FAEDD2E7CD33EC332482FB73
:10037A00E4C3CF33CFCE33CECD33CD33DBF37B07DC
:10038A0075F00A846004F2081B0AE5F0F2088FF09F
:10039A00740AA4FFACF08EF0740AA42CFEACF050E0
:1003AA00010C8DF0740AA42CFDE435F0F208DBDEB2
:0303BA00740722A3
:1003BD00020276E86480F8E933E83360110460F0F6
:1003CD00ED33EC337009E8FCE9FDEAFEEBFF2204A6
:1003DD0060DED3EB9FEA9EE99DE8C2E78CF0C2F7A1
:1003ED0095F0400CE8CCF8E9CDF9EACEFAEBCFFB6D
:1003FD0012024185D0F05804700320D5B3E8047083
:10040D00075002B2D502028092D5EC0460F7E4CC1D
:10041D00C0E0C398F8603B94186008400DD0E0FB35
:10042D00020258E4FBFAC9FC8028E830E406E4C96E
:10043D00FBE4CAFCE830E305E4C9CACBFCE8540789
:10044D006010F8C3E913F9EA13FAEB13FBEC13FC94
:10045D00D8F130F52FC3E49CFCEF9BFFEE9AFEED37
:10046D0099FDD0E0FBEF4E4D4C701222DB030202E2
:10047D007DEC2CFCEF33FFEE33FEED33FDED30E77D
:10048D00EB020258EF2BFFEE3AFEED39FDD0E0FB0B
:10049D0050130BBB0003020280ED13FDEE13FEEFB4
:0804AD0013FFEC13FC020258DE
:1004B5003F8000004120000042C80000447A00004F
:1004C500461C400047C35000497424004B189680D1
:1004D5004CBEBC205A0E1BCA6753C21C749DC5AEC8
:1004E500FB60065407601C2323120513EB54386088
:1004F500091204FF12050E120026ECF8EDF9EEFACA
:10050500EFCB22EB12050E80F1543803241C900426
:10051500B5FE93FC0EEE93FD0EEE930ECE93FF22E9
:1012CA000219C1E493A3F8E493A34003F68001F260
:1012DA0008DFF48029E493A3F85407240CC8C33325
:1012EA00C4540F4420C8834004F456800146F6DFF4
:1012FA00E4800B01020408102040809013D6E47E9B
:10130A00019360BCA3FF543F30E509541FFEE493E8
:10131A00A360010ECF54C025E060A840B8E493A3AF
:10132A00FAE493A3F8E493A3C8C582C8CAC583CADA
:10133A00F0A3C8C582C8CAC583CADFE9DEE780BE92
:011458000093
:10052500E709F608DFFA8046E709F208DFFA803EB8
:1005350088828C83E709F0A3DFFA8032E309F608A5
:10054500DFFA8078E309F208DFFA807088828C830D
:10055500E309F0A3DFFA806489828A83E0A3F608C1
:10056500DFFA805889828A83E0A3F208DFFA804C9B
:1005750080D280FA80C680D4806980F28033801072
:1005850080A680EA809A80A880DA80E280CA8033DB
:1005950089828A83ECFAE493A3C8C582C8CCC58353
:1005A500CCF0A3C8C582C8CCC583CCDFE9DEE78023
:1005B5000D89828A83E493A3F608DFF9ECFAA9F0A2
:1005C500EDFB2289828A83ECFAE0A3C8C582C8CCF8
:1005D500C583CCF0A3C8C582C8CCC583CCDFEADE11
:1005E500E880DB89828A83E493A3F208DFF980CC73
:1005F50088F0EF60010E4E60C388F0ED2402B4046C
:100605000050B9F582EB2402B4040050AF23234512
:06061500822390057573BD
:10061B00BB010689828A83E0225002E722BBFE02DD
:09062B00E32289828A83E4932210
:10063400BB010CE58229F582E5833AF583E022507B
:1006440006E92582F8E622BBFE06E92582F8E222C5
:0D065400E58229F582E5833AF583E49322DF
:10066100BB010689828A83F0225002F722BBFE0178
:02067100F32272
:0E067300C3E49FFFE49EFEE49DFDE49CFC2298
:10068100EB9FF5F0EA9E42F0E99D42F0E89C45F0CF
:010691002246
:0C069200ECF208EDF208EEF208EFF222A4
:10069E00D083D082E493F208740193F2087402932B
:0906AE00F208740393F274047362
:1006B700FAE2FB0808E2F925F0F218E2CA3AF22258
:0906C700EBF208EAF208E9F22264
:1006D000D083D082F8E4937012740193700DA3A3B9
:1006E00093F8740193F5828883E4737402936860CD
:0606F000EFA3A3A380DFCD
:1017BD00EFB40A07740D1217C8740A309811A8995E
:1017CD00B8130CC2983098FDA899C298B811F6308C
:0717DD0099FDC299F5992264
:1014590078D7EBF208EAF208E9F278DDEBF208EA6C
:10146900F208E9F278D7E2FB0808E2F92401F21858
:10147900E2FA3400F212061B70EA78D9E224FFF28C
:1014890018E234FFF278DAE2FB0808E2F92401F203
:1014990018E2FA3400F212061BFF78D7E2FB0808BB
:1014A900E2F92401F218E2FA3400F2EF120661704F
:0C14B900D478DDE2FB08E2FA08E2F92238
:1006F600E709F60870FA8046E709F20870FA803EC4
:1007060088828C83E709F0A370FA807EE309F608F5
:1007160070FA8076E309F20870FA806E88828C831C
:10072600E309F0A370FA806289828A83E0A3F6085F
:1007360070FA805689828A83E0A3F20870FA804AAA
:1007460080D280FA80C680D4806580F280318010A5
:1007560080A680EA809A80A880DA80E280CA80310A
:1007660089828A83ECFAE493A3C8C582C8CCC58380
:10077600CCF0A3C8C582C8CCC583CC70E9800D89EE
:10078600828A83E493A3F60870F9ECFAA9F0EDFBEC
:100796002289828A83ECFAE0A3C8C582C8CCC583C5
:1007A600CCF0A3C8C582C8CCC583CC70EA80DD89ED
:1007B600828A83E493A3F20870F980CE88F0ED2450
:1007C60002B4040050C4F582EB2402B4040050BA0B
:0907D6002323458223900746739A
:1010D90078E3EBF208EAF208E9F208E2FB08E2FA3F
:1010E90008E2F912061B700302118078E3E2FB089B
:1010F900E2FA08E2F912061B700302118B08E2F901
:1011090008E2FA08E208C9F208EAF208E9F278E323
:10111900E2F908E2FA08E278ECC9F208EAF208E929
:10112900F278E9E2FB08E2FA08E2F912061BFF602D
:101139002708E2FB08E2FA08E2F912061B6F7018A9
:1011490078EBE22401F218E23400F278EEE22401AD
:10115900F218E23400F280C978E9E2FB08E2FA0801
:10116900E2F912061B7002800E78E5E22401F218FA
:10117900E23400F20210F478E3E2FB08E2FA08E252
:09118900F9227B007A00790022B2
:1007DF00EF4E6012EF60010EEDBB010B89828A8331
:1007EF00F0A3DFFCDEFA2289F05007F709DFFCA93E
:0C07FF00F022BBFEFCF309DFFCA9F02295
:00000001FF
