:03000000020C1CD3
:0C0C1C00787FE4F6D8FD758121020C639E
:0610750012107B020F883F
:0E104F001210757590F1120D62120A2880F8C9
:0D000600C2B5120E0AD2B4120E0EC2B42200
:0D105D00D2B5120E0AD2B4120E0EC2B42289
:100FC000ED70067863EFF28006EF24407863F278E4
:080FD00063E24480FF02000609
:100DD3007860EBF208EAF208E9F2120FC07860E2F9
:100DE300FB08E2FA08E2F9120515601A7860E2FBE3
:100DF3000808E2F92401F218E2FA3400F2120515A8
:070E0300FF12105D80D722F1
:101019007F381200067F0C1200067F061200067F39
:0410290001020006BA
:080E0A00C2B68F807F017E005B
:100E1200D3EF9400EE940040257D26EDD394007428
:100E220080948040127C82ECD39400748094804041
:0E0E3200031C80F31D80E4EF1F70D51E80D2DC
:010E4000228F
:10103F00F1F3F2F6F4FCF8F9F9F8FCF4F6F2F3F147
:060EEB00EF93F5907F017A
:100EF100EFD394007480948040127E78EED39400F6
:0C0F01007480948040031E80F31F80E485
:010F0D0022C1
:100CA800C2A6E47800F208F2E47802F27802E2FFE1
:100CB800C3940874809480500B90103F120EEBE29E
:100CC80004F280E87801E22401F218E23400F2C369
:100CD80008E2940818E26480948240CCD2A6759009
:020CE800F122F7
:100CEA00E47800F208F2E47802F27802E2FFC394B0
:100CFA000874809480500B901047120EEBE204F2B5
:100D0A0080E87590F17801E22401F218E23400F2E9
:0E0D1A00C308E2940818E26480948240C92263
:060F6C0081040081050173
:0B106A00D28AD2AAD288D2A8D2AF222C
:03107B0002106AF6
:03000300020FEFFA
:100FEF00C0E0C0D075D000C00078047401F2D0000A
:050FFF00D0D0D0E0326B
:03001300021004D4
:10100400C0E0C0D075D000C00078047402F2D000F3
:05101400D0D0D0E03255
:100D62007805E264017015C296D29518E2640170AA
:100D72000B120CA878057402F2E418F27805E2640A
:100D8200027015D296C29518E26402700B120CEA38
:090D920078057401F2E418F22264
:100FD800D2947F0212107EC2947F147E00120F30CA
:070FE800D2947F0D02107E80
:050D9B00E4F208EFF294
:100DA000E4786DF2786DE2C3940874809480501EEC
:100DB0003094FD7F0812107E786EE225E0F23094C8
:100DC00003E204F22094FD786DE204F280D6786E9E
:020DD000E2FF40
:010DD20022FE
:100B8900120FD8D294309403020C1B3094FD7F28A5
:100B990012107E120DA07860120D9B7862120D9BC7
:100BA9007864120D9B7866120D9B786CEFF27F19B1
:100BB90012107E7862E2FE08E2FF7861E22FFF18E8
:100BC900E23EFE7865E22FFF18E23EFE7866E2FC1F
:100BD90008E2FD2FFFEC3EFE786CE27A00B5071CB7
:100BE900EAB50618786008E27868F2786208E2786F
:100BF90069F2786408E2786AF208EDF27868E2FF4F
:100C09007856E4F208EFF27869E2FF7858E4F208DE
:020C1900EFF2F8
:010C1B0022B6
:03107E00DFFE2270
:100F3000D3EF9400EE940040147D6E7C00ED1D70A4
:0D0F4000011CED4C70F7EF1F70E61E80E302
:010F4D002281
:040F720082060000F3
:100F0E00E4FEEEC39408748094805015C2A1EF30B5
:100F1E00E704D2A08002C2A0D2A1EF25E0FF0E808E
:010F2E00E1E1
:010F2F00229F
:100EC500E4FBEBC3940C748094805015ED25E0FD94
:100ED500EC33FCD2A1C2A130A504ED4401FD0B8089
:050EE500E1AF05AE04C1
:010EEA0022E5
:10102D00C2B7120F0EC2A10000000000120EC5D2F1
:01103D00B7FB
:01103E00228F
:100E41007FE412102D7806EEF208EFF2FDAC06E415
:100E51001201C17BE67A3F799C783F120016E4FBD0
:100E6100FA7920784112011F1201FA7806EEF20890
:030E7100EFF2227B
:060F760081320181370009
:100E7400E4FDFFFEC2A3C2A2EDC39410748094806B
:100E84005015D2A2EF25E0FFEE33FE30A404EF4468
:090E940001FFC2A20D80E1D2A30E
:010E9D002232
:100F4E00D3EF9400EE940040147D727C00ED1D7082
:0D0F5E00011CED4C70F7EF1F70E61E80E3E4
:010F6B002263
:100D28007860740BF2120E74EF54047836F2E2FD18
:100D38001313543FF2EF25E0FFEE33C4F854F0C824
:100D480068FEEFC4540F48FF7802CEC313CE13D801
:090D5800F9FF7833EEF208EFF226
:010D6100226F
:100FA4004741533A0054656D703A0025640020208F
:0C0FB400202020202020002E00202500FE
:0B0F7C0082540000825E0000815300E0
:100F88001210197BFF7A0F79A4E4FDFF120DD37BB1
:0C0F9800FF7A0F79A97D01E4FF020DD360
:100A2800120E417854EEF208EFF2120D28785EEEBD
:100A3800F208EFF27F147E00120F30120B897863F0
:100A480074FFF208740FF20874AFF27854E2FF08EA
:100A5800E27866CFF208EFF27BFE7A00793B120665
:100A6800167F0D7E00120F307BFF7A0F79B2E4FDFE
:100A78007F06120DD37BFE7A00793BE4FD7F0612D8
:100A88000DD3786374FFF208740FF20874AFF2782C
:100A980056E2FF08E27866CFF208EFF27BFE7A00B2
:100AA8007947120616786374FFF208740FF2087417
:100AB800AFF27858E2FF08E27866CFF208EFF27BEF
:100AC800FE7A00794D1206167F0D7E00120F3078DF
:100AD8006374FFF208740FF20874AFF2785EE2FFF5
:100AE80008E27866CFF208EFF27BFE7A00794112CD
:100AF80006167BFE7A007941E4FD7F0C120DD37B4C
:100B0800FE7A0079477D017F06120DD37BFF7A0FAD
:100B180079BB7D017F08120DD37BFE7A00794D7D6C
:100B2800017F09120DD37BFF7A0F79BD7D017F0A02
:100B3800120DD3D37855E2949618E29400500B78AE
:100B480057E2945018E294004004C2A38002D2A352
:100B5800785EE2FE08E2FFD39450EE9400400578F8
:100B6800537401F27853E264017015C3EF9414EEE4
:100B78009400500C78057402F27804F2E47853F289
:010B8800224A
:10001600EC4D6011E8497017ED33EC3304600DE4E4
:10002600FCFFFEFD22E933E8330470F80202661293
:10003600023158046009E4CC248150062850090294
:10004600027028400302026DC0E0EB4A7044B9809A
:1000560006D0E0FB02025CEF4E701CBD8008EBFF91
:10006600EAFEE9FD80EBE98DF0A4FEE5F00200FF73
:10007600E9CDF9EAFEEBFFEF89F0A4FCE5F0CE89C5
:10008600F0A42EFFE435F0CD89F0A42DFEE435F082
:100096008067EF4E7005BD80D780C3EF8BF0A4ACB0
:1000A600F0EE8BF0A42CFCE435F0F8EF8AF0A42CEB
:1000B600E5F038FCE433CB8DF0A42CFCE5F03BF8FE
:1000C600EE8AF0A42CFCE5F038F8E433CF89F0A4EE
:1000D6002CFCE5F038CF3400CE89F0A42FFFE5F0F4
:1000E6003EFEE433C98DF0A42EFEE5F039CD8AF04C
:1000F600A42FFFE5F03EFEE43DFD33D0E0FB5007C4
:100106000BBB000F020270EC2CFCEF33FFEE33FE4C
:06011600ED33FD0202487A
:10011C00020270EC5D046005E8590470030202668B
:10012C00120231580460F6EC4860F2EC7004FDFEEB
:10013C00FF22C860DB2481C85009C39860025006B6
:10014C0002026D9850CAF582E9294B4A7005AB82C0
:10015C0002025C75F0007C1A7880C3EF9BEE9AED7E
:10016C0099400DC3EF9BFFEE9AFEED99FDE842F02E
:10017C00DC23ACF0D0E0FFD0E0FED0E0FDAB822081
:10018C00E7101BEB60BAEC2CFCEF33FFEE33FEED0B
:10019C0033FD020248E803F830E705C0F075F000C3
:1001AC00EF2FFFEE33FEED33FD40B830E7C280AAEF
:1001BC0075F020800E75F010800575F0087D007EBE
:1001CC00007F003392D530D50312056DEC3340100F
:1001DC00EF33FFEE33FEED33FDEC33FCD5F0ED22C7
:0E01EC00E5F0247EA2D513CC92E7CDCEFF2203
:1001FA00EDD2E7CD33EC3392D524814006E4FFFEFD
:10020A00FDFC22FCE4CFCECDCC24E0501174FF805B
:10021A00EDC3CC13CCCD13CDCE13CECF13CF0470F8
:07022A00F030D5DE02056D86
:1005BA00E5082463F8E205082278603007027863C8
:1005CA00E475F00112057B0205152000EB7F2ED29F
:1005DA00008018EF540F2490D43440D4FF30040B19
:1005EA00EF24BFB41A0050032461FFE50960021525
:1005FA0009050CE50C7002050B30070D7860E475EF
:10060A00F00112057BEF02055B020E9E7403D2070E
:10061A008003E4C207F508786012058BE4F509F552
:10062A000BF50CE50960077F201205F580F5750AC0
:10063A00FFC201C200C202C203C205C206C2081238
:10064A0005C3FF700D3007057F00120606AF0CAE1A
:10065A000B22B4255FC2D5C2041205C3FF24D0B44D
:10066A000A00501A75F00A780930D50508B6FF0154
:10067A0006C6A426F620D5047002D20380D924CF58
:10068A00B41A00EF5004C2E5D2040208F2D2018083
:10069A00C6D20080C0D20280BCD2D580BAD2058030
:1006AA00B47F201205F52002077401B5090040F154
:1006BA001205BAFF1205F502062DD208D206809558
:1006CA001205BAFB1205BAFA1205BAF94A4B7006B4
:1006DA0079E97A097BFF20022EE509602A7E008EDD
:1006EA008275830012052E60060EEE650A70F0C24E
:1006FA00D5EBC0E0EAC0E0E9C0E0EE120952D0E072
:10070A00F9D0E0FAD0E0FB120515FF60AAEBC0E0D1
:10071A00EAC0E0E9C0E01205F5D0E02401F9D0E032
:10072A003400FAD0E0FBE50A0460DCD50AD98087F8
:10073A00D20280A212093560F7E50A70010412029A
:10074A007BA90A600DE50A600914F50A1209DCEFB3
:10075A0060F3EA30E702F404C3995077EAF4250A11
:10076A000430E701E404F50A800D12093560C1EA94
:10077A00050A250A12027BEA7876F230E701E425B7
:10078A000A04D50A0420050114120952E4C0E01231
:10079A0009DC7876E2601320E70714F21205DD809F
:1007AA002204F2D0E014C0E07F001205DDE50A6001
:1007BA00071205D4150A800B3005031205D4D0E0C0
:1007CA0002062DD0E00480C512093560A0E50A04AE
:1007DA0012027B7876EAF2E50A2005026001042417
:0C07EA000412095274FF04C0E01209DC84
:1007F6001205DDE50A20050260031205D4D0E0B536
:100806000AE87F451205E77876E27F2B30E7047F1A
:100816002DF404C0E01205F5D0E075F00A84C0F0AE
:100826001205DED0E01205DE02062D79108002796F
:1008360008C206C2088008D2D5790A8004790AC29D
:10084600D5E50A047002F50AE4FAFDFEFF1205BAC0
:10085600FC7B082001131205BAFD7B1030000A123A
:1008660005BAFE1205BAFF7B20EC3382D592D5502D
:1008760013C3E43000069FFFE49EFEE42001039DBF
:10088600FDE49CFCE4CBF8C201EC700CCFCECDCCE1
:10089600E824F8F870F38017C3EF33FFEE33FEED6C
:1008A60033FDEC33FCEB33FB994002FB0FD8E9EB4D
:1008B600300105F8D0E0C448B201C0E00AEC4D4E64
:1008C6004F78207B0070C2EAB50A0040BCC0E01237
:1008D6000954D0F0D0E0200104C4C0E0C4B201C085
:1008E600F01205DED0F0D5F0EB02062D12059406C7
:1008F600CA53083158069B4C06974208354F083DA7
:1009060044083D4906B04308435507744607D24597
:10091600073E470A0950069F2D06A32E06C62B063C
:10092600A72306C42009F22A065F48000006BEE592
:100936000AB4FF03750A061205BAFC1205BAFD12BF
:1009460005BAFE1205BAFF786F0202AA790AA2D585
:10095600200314300509B910020404B9080104A2E1
:10096600D52006025001042002689202B509005003
:1009760034C0E07F203003197F30A2027206720570
:10098600500F1209ABC202C206C205C2087F3080F0
:100996000F300503E9C0E01205F5300503D0E0F994
:1009A600D0E0B509CC3005177F30B9100C1205F52B
:1009B6007F583004077F788003B908031205F530A5
:1009C60002057F2D0205F57F202008F87F2B2006E3
:1009D600F322920280CF7F00B407005005246FF8FF
:1009E600E2FF22286E756C6C2900D2011205BA301E
:1009F60001F8C201780930D50108F602065F2D50CC
:100A06004349581205BA2403B405004001E4900A8C
:100A160004931205E6743A1205E6D2037509040238
:020A2600083195
:10023100E9D2E7C933E833F892D5EDD2E7CD33EC13
:0702410033FC5002B2D5228C
:10024800EC30E7100FBF000C0EBE00080DBD000417
:100258000BEB6014A2D5EB13FCED92E7FD2274FFC3
:10026800FCFDFEFF22E480F8A2D574FF13FC7D801C
:03027800E480EF30
:10027B00F920E72824F950037907E4F42402FB184A
:10028B00DBFDE224FB5014E9600DE4F218E204F20A
:0F029B00B40A08E4F2D9F57401F20A22C2D5229E
:1002AA00ED33EC3392D5FA602AB4FF33EDC2E77B23
:1002BA00FF60067A0279CFE4227A0279D820D5043F
:1002CA007A0279D3224E614E002B494E46002D49BF
:1002DA004E4600E47A08F208DAFC7B00740722E84A
:1002EA00C0E0ECC0E0EDC0E0EEC0E0EFC0E0EA75CF
:1002FA00F010A4CAABF075F04DA42BFBE435F0FC6A
:10030A00EA2410FAEB34C5FBEC34D9FCEDC2E7FF62
:10031A0075F056A4F42411C5F0F434C58FF0A42A5C
:10032A00E5F03BE43CF220E7141204D5D0E0FFD01C
:10033A00E0FED0E0FDD0E0FC12011F8014F40412AC
:10034A0004D5D0E0FFD0E0FED0E0FDD0E0FC120002
:10035A0016D0E0F8E2FAEDD2E7CD33EC332482FB93
:10036A00E4C3CF33CFCE33CECD33CD33DBF37B07EC
:10037A0075F00A846004F2081B0AE5F0F2088FF0AF
:10038A00740AA4FFACF08EF0740AA42CFEACF050F0
:10039A00010C8DF0740AA42CFDE435F0F208DBDEC2
:0303AA00740722B3
:1003AD00020266E86480F8E933E83360110460F016
:1003BD00ED33EC337009E8FCE9FDEAFEEBFF2204B6
:1003CD0060DED3EB9FEA9EE99DE8C2E78CF0C2F7B1
:1003DD0095F0400CE8CCF8E9CDF9EACEFAEBCFFB7D
:1003ED0012023185D0F05804700320D5B3E80470A3
:1003FD00075002B2D502027092D5EC0460F7E4CC3E
:10040D00C0E0C398F8603B94186008400DD0E0FB45
:10041D00020248E4FBFAC9FC8028E830E406E4C98E
:10042D00FBE4CAFCE830E305E4C9CACBFCE8540799
:10043D006010F8C3E913F9EA13FAEB13FBEC13FCA4
:10044D00D8F130F52FC3E49CFCEF9BFFEE9AFEED47
:10045D0099FDD0E0FBEF4E4D4C701222DB030202F2
:10046D006DEC2CFCEF33FFEE33FEED33FDED30E79D
:10047D00EB020248EF2BFFEE3AFEED39FDD0E0FB2B
:10048D0050130BBB0003020270ED13FDEE13FEEFD4
:08049D0013FFEC13FC020248FE
:1004A5003F8000004120000042C80000447A00005F
:1004B500461C400047C35000497424004B189680E1
:1004C5004CBEBC205A0E1BCA6753C21C749DC5AED8
:1004D500FB60065407601C2323120503EB543860A8
:1004E500091204EF1204FE120016ECF8EDF9EEFA0B
:1004F500EFCB22EB1204FE80F1543803241C900448
:10050500A5FE93FC0EEE93FD0EEE930ECE93FF2209
:100C280002104FE493A3F8E493A34003F68001F283
:100C380008DFF48029E493A3F85407240CC8C333CD
:100C4800C4540F4420C8834004F456800146F6DF9C
:100C5800E4800B0102040810204080900F6CE47EB1
:100C6800019360BCA3FF543F30E509541FFEE49391
:100C7800A360010ECF54C025E060A840B8E493A358
:100C8800FAE493A3F8E493A3C8C582C8CAC583CA83
:100C9800F0A3C8C582C8CAC583CADFE9DEE780BE3B
:010F87000069
:10051500BB010689828A83E0225002E722BBFE02E4
:09052500E32289828A83E4932217
:10052E00BB010CE58229F582E5833AF583E0225082
:10053E0006E92582F8E622BBFE06E92582F8E222CC
:0D054E00E58229F582E5833AF583E49322E6
:10055B00BB010689828A83F0225002F722BBFE017F
:02056B00F32279
:0E056D00C3E49FFFE49EFEE49DFDE49CFC229F
:10057B00FAE2FB0808E2F925F0F218E2CA3AF22295
:09058B00EBF208EAF208E9F222A1
:10059400D083D082F8E4937012740193700DA3A3F6
:1005A40093F8740193F5828883E47374029368600A
:0605B400EFA3A3A380DF0A
:100E9E00EFB40A07740D120EA9740A309811A899AE
:100EAE00B8130CC2983098FDA899C298B811F630B4
:070EBE0099FDC299F599228C
:00000001FF
