:0300000002128663
:0C128600787FE4F6D8FD7581210212CDBE
:10187A0053494D206973206C6F6164696E672E2E1F
:0C188A00004741533A0054656D703A006D
:1016800012198E1218967BFF7A18797AE4FDFF12F0
:1016900015DE120EF57F011200067BFF7A18798B9A
:1016A000E4FDFF1215DE7BFF7A1879907D01E4FFDF
:0316B0000215DE42
:0E196D001216807590F112145E120C7980F83B
:0D000600C2B5121615D2B4121619C2B422DA
:0D001600D2B5121615D2B4121619C2B422BA
:1018B200ED700678ABEFF28006EF244078ABF27859
:0818C200ABE24480FF020006C6
:1015DE0078A8EBF208EAF208E9F21218B278A8E25B
:1015EE00FB08E2FA08E2F912061B601A78A8E2FB81
:1015FE000808E2F92401F218E2FA3400F212061B8E
:07160E00FF12001680D72235
:101923007F381200067F0C1200067F061200067F26
:0419330001020006A7
:08161500C2B68F807F017E0048
:10161D00D3EF9400EE940040257D26EDD394007415
:10162D0080948040127C82ECD3940074809480402E
:0E163D00031C80F31D80E4EF1F70D51E80D2C9
:01164B00227C
:10195D00F1F3F2F6F4FCF8F9F9F8FCF4F6F2F3F120
:0617DA00EF93F5907F0182
:1017E000EFD394007480948040127E78EED39400FE
:0C17F0007480948040031E80F31F80E48E
:0117FC0022CA
:1014B100C2A6E47800F208F2E47802F27802E2FFD0
:1014C100C3940874809480500B90195D1217DAE26E
:1014D10004F280E87801E22401F218E23400F2C358
:1014E10008E2940818E26480948240CCD2A67590F8
:0214F100F122E6
:1014F300E47800F208F2E47802F27802E2FFC3949F
:101503000874809480500B9019651217DAE204F284
:1015130080E87590F17801E22401F218E23400F2D8
:0E152300C308E2940818E26480948240C92252
:10140A008C053137383635363737383833009C1142
:10141A0047617320666C616D656F75742068617AC7
:10142A00617264207761726E696E6700810400815F
:02143A002D0182
:0B197B00D28AD2AAD288D2A8D2AF2212
:03198E0002197BC0
:030003000218F9E7
:1018F900C0E0C0D075D000C00078047401F2D000F7
:05190900D0D0D0E03257
:0300130002190EC1
:10190E00C0E0C0D075D000C00078047402F2D000E0
:05191E00D0D0D0E03242
:10145E00782DE26401702DC296D2957804E2640173
:10146E00702278AB74FEF2087400F2087411F27BED
:10147E00FE7A007905120DE11214B1782D7402F284
:10148E00E47804F2782DE264027017D296C2957851
:10149E0004E26402700C1214F3782D7401F2E478F5
:0314AE0004F22223
:1018E200D2947F02121991C2947F147E0012183E84
:0718F200D2947F0D02199151
:0515A600E4F208EFF281
:1015AB00E478B5F278B5E2C3940874809480501E49
:1015BB003094FD7F0812199178B6E225E0F2309451
:1015CB0003E204F22094FD78B5E204F280D678B6FB
:0215DB00E2FF2D
:0115DD0022EB
:1011F3001218E2D2943094030212853094FD7F28B2
:101203001219911215AB78A81215A678AA1215A671
:1012130078AC1215A678AE1215A678B4EFF27F1942
:1012230012199178AAE2FE08E2FF78A9E22FFF18CB
:10123300E23EFE78ADE22FFF18E23EFE78AEE2FC1E
:1012430008E2FD2FFFEC3EFE78B4E27A00B5071CFE
:10125300EAB5061878A808E278B0F278AA08E27826
:10126300B1F278AC08E278B2F208EDF278B0E2FFBE
:10127300789DE4F208EFF278B1E2FF789FE4F20898
:02128300EFF288
:011285002246
:03199100DFFE2254
:10183E00D3EF9400EE940040147D6E7C00ED1D708D
:0D184E00011CED4C70F7EF1F70E61E80E3EB
:01185B00226A
:04143C00822E0000FC
:1017FD00E4FEEEC39408748094805015C2A1EF30BE
:10180D00E704D2A08002C2A0D2A1EF25E0FF0E8096
:01181D00E1E9
:01181E0022A7
:10179000E4FBEBC3940C748094805015ED25E0FDC0
:1017A000EC33FCD2A1C2A130A504ED4401FD0B80B5
:0517B000E1AF05AE04ED
:0117B5002211
:10194B00C2B71217FDC2A10000000000121790D2FF
:01195B00B7D4
:01195C002268
:1016B3007FE412194B782EEEF208EFF2FDAC06E44C
:1016C3001201D17BE67A3F799C783F120026E4FB36
:1016D300FA7920784112012F12020A782EEEF208CD
:0316E300EFF22201
:06144000815A01815F00EA
:10171500E4FDFFFEC2A3C2A2EDC3941074809480C1
:101725005015D2A2EF25E0FFEE33FE30A404EF44BE
:0917350001FFC2A20D80E1D2A364
:01173E002288
:10185C00D3EF9400EE940040147D727C00ED1D706B
:0D186C00011CED4C70F7EF1F70E61E80E3CD
:01187900224C
:10156C0078A8740BF2121715EF5404785EF2E2FDB2
:10157C001313543FF2EF25E0FFEE33C4F854F0C8D8
:10158C0068FEEFC4540F48FF7802CEC313CE13D8B5
:09159C00F9FF785BEEF208EFF2B2
:0115A5002223
:03144600816600BC
:1018CA00759850D29CE4F587758920758DFD758BC6
:0818DA00FDD28ED2AFD2AC2288
:081986008F993099FDC29922EE
:10164C0078BAEBF208EAF208E9F278BAE2FB08E2BF
:10165C00FA08E2F912061B601A78BAE2FB0808E2F3
:10166C00F92401F218E2FA3400F212061BFF1219E7
:04167C008680D7226B
:1016E6007863EBF208EAF208E9F27863E2F908E2D5
:1016F600FA08E278BDC9F208EAF208E9F27B017A53
:0F1706000079C61210A1E94A4B6002D322C32218
:101937007E007F647D007B017A0079C61207DFE4B1
:041947007866F222AA
:0300230002153192
:10153100C0E0C083C082C0D075D008C2AC30982052
:10154100C2987866E224C6F582E43400F583E59911
:10155100F0E204F2E2C39464748094804002E4F205
:0B156100D2ACD0D0D082D083D0E032DA
:1013120041540D0A004F4B0D0A0041542B435049D2
:101322004E3F0D0A0052454144590041542B434D52
:1013320047463D310D0A0041542B43534D503D3138
:10134200372C3136372C302C380D0A0041542B43C0
:101352005343533D2247534D220D0A0041542B4320
:101362004D47533D2200220D0A003E0041544400E5
:101372003B0D0A0000000000000000000000000019
:10138200000000000000000000000000000000005B
:0C1392000000000000000000000000004F
:06144900847E000000009B
:100EF5001218CA78B174FFF2087413F2087417F265
:100F05000812069E00000BB8120FDCEF64014E605C
:100F15000312173F1217B678B174FFF2087413F273
:100F2500087427F20812069E000003E878B8740AD0
:100F3500F27BFF7A13791C120FE7EF64014E600311
:100F450012173F1217B678B174FFF2087413F2083E
:100F55007417F20812069E000003E878B8740AF2C6
:100F65007BFF7A13792D120FE7EF64014E600312B0
:100F7500173F1217B678B174FFF2087413F20874AC
:100F850017F20812069E00000BB878B8740AF27BB7
:100F9500FF7A137939120FE7EF64014E60031217D8
:100FA5003F1217B678B174FFF2087413F20874177C
:100FB500F20812069E000003E878B8740AF27BFF77
:100FC5007A13794E120FE7EF64014E600312173F53
:070FD5007F0A7E000217BA3B
:0A0DE10078A8EBF208EAF208E9F244
:100DEB00782A7C017D017BFF7A1379767E007F1454
:100DFB001205F57E007F147D007B017A01792A12A2
:100E0B0007DF782A7C017D017BFF7A13795E12075D
:100E1B00C278A8E2F908E2FA08E278B1C9F208EA66
:100E2B00F208E9F27B017A01792A12139E78B174E8
:100E3B00FFF2087413F2087468F27B017A01792AC5
:100E4B0012139E78B174FFF2087413F208746CF2EB
:100E5B000812069E00000BB878B8740AF27B017A70
:100E6B0001792A120FE7EF64014E600312173F78E6
:100E7B00ABE2F908E2FA08E278B1C9F208EAF20843
:100E8B00E9F20812069E00000BB878B8740AF278E3
:100E9B00ABE2FB08E2FA08E2F9120FE7EF64014E4E
:100EAB00600312173F7E007F287D007B017A01795A
:100EBB002A1207DF90012A741AF0E4A3F078B174B8
:100ECB00FFF2087413F2087417F20812069E000062
:100EDB00271078B87405F27B017A01792A120FE793
:090EEB00EF64014E600312173F91
:010EF40022DB
:0A115A007867EBF208EAF208E9F208
:10116400087C007DFE7BFF7A13798A7E007F14124F
:1011740005F57E007F147D007BFE7A00796A1207F4
:10118400DF786A7C007DFE7BFF7A13796E1207C2DA
:101194007867E2F908E2FA08E278B1C9F208EAF2FB
:1011A40008E9F27BFE7A00796A12139E78B174FF23
:1011B400F2087413F2087472F27BFE7A00796A12F0
:1011C400139E78B174FFF2087413F2087417F208CE
:1011D40012069E0000271078B8740AF27BFE7A008B
:0E11E400796A120FE7EF64014E600312173FA5
:0111F20022DA
:10173F0078B174FFF2087413F2087417F2081206E6
:10174F009E00000064120FDCEF64014E700312194B
:0A175F00947FC87E001217BA80D6EE
:031994000200004E
:0B0FDC0078B8740AF27BFF7A137912D8
:0A0FE70078AEEBF208EAF208E9F236
:100FF100121937E478B9F278B8E2FF08E2C39F40EA
:101001000302109A78AEE2FB08E2FA08E2F912163E
:101011004C787E12069E0000000078B4E2FC08E2E3
:10102100FD08E2FE08E2FF787EE2FB08E2F908E251
:10103100FA08E2CBF8C3120681504D7F647E00129C
:1010410017BA787EE2FC08E2FD08E2FE08E22464B9
:10105100FFE43EFEE43DFDE43CFC787E120692781E
:10106100B1E2F908E2FA08E278BDC9F208EAF20849
:10107100E9F27B017A0079C61210A1E94A4B609A24
:101081001219377E007F0122787E12069E00000031
:0F1091000078B9E204F2020FF8121937E4FEFFFB
:0110A000222D
:0417B6007F0A7E0028
:1017BA00E4FDFCC3ED9FEC9E5015E4FBFA0BBB0065
:0F17CA00010AEB647B4A70F50DBD00010C80E451
:0117D90022ED
:10181F004741533A0054656D703A0025640020200B
:0F182F00202020202020202020002E0020250017
:0E144F00829B000082A50000819A0081A70008
:101896001219237BFF7A18791FE4FDFF1215DE7BF0
:0C18A600FF7A1879247D01E4FF0215DEB2
:100C79001216B3789BEEF208EFF212156C78A5EE16
:100C8900F208EFF27F147E0012183E1211F378ABCE
:100C990074FFF2087418F208742AF2789BE2FF08CC
:100CA900E278AECFF208EFF27BFE7A007982120881
:100CB900677F0D7E0012183E7BFF7A18792DE4FDBF
:100CC9007F061215DE7BFE7A007982E4FD7F06122B
:100CD90015DE78AB74FFF2087418F208742AF278FA
:100CE9009DE2FF08E278AECFF208EFF27BFE7A00D0
:100CF900798E12086778AB74FFF2087418F20874D9
:100D09002AF2789FE2FF08E278AECFF208EFF27B91
:100D1900FE7A0079941208677F0D7E0012183E78DA
:100D2900AB74FFF2087418F208742AF278A5E2FF8E
:100D390008E278AECFF208EFF27BFE7A00798812EA
:100D490008677BFE7A007988E4FD7F0C1215DE7B4B
:100D5900FE7A00798E7D017F061215DE7BFF7A18F7
:100D690079397D017F081215DE7BFE7A0079947D41
:100D7900017F091215DE7BFF7A18793B7D017F0A15
:100D89001215DED3789CE2949618E29400500B7801
:100D99009EE2945018E294004004C2A38002D2A3B8
:100DA90078A5E2FE08E2FFD39450EE9400400C7857
:100DB9009A7401F278A7E2700204F2789AE2640167
:100DC9007015C3EF9423EE9400500C782D7402F241
:080DD9007804F2E4789AF2229A
:10002600EC4D6011E8497017ED33EC3304600DE4D4
:10003600FCFFFEFD22E933E8330470F80202761273
:10004600024158046009E4CC248150062850090274
:10005600028028400302027DC0E0EB4A7044B9806A
:1000660006D0E0FB02026CEF4E701CBD8008EBFF71
:10007600EAFEE9FD80EBE98DF0A4FEE5F002010F52
:10008600E9CDF9EAFEEBFFEF89F0A4FCE5F0CE89B5
:10009600F0A42EFFE435F0CD89F0A42DFEE435F072
:1000A6008067EF4E7005BD80D780C3EF8BF0A4ACA0
:1000B600F0EE8BF0A42CFCE435F0F8EF8AF0A42CDB
:1000C600E5F038FCE433CB8DF0A42CFCE5F03BF8EE
:1000D600EE8AF0A42CFCE5F038F8E433CF89F0A4DE
:1000E6002CFCE5F038CF3400CE89F0A42FFFE5F0E4
:1000F6003EFEE433C98DF0A42EFEE5F039CD8AF03C
:10010600A42FFFE5F03EFEE43DFD33D0E0FB5007B3
:100116000BBB000F020280EC2CFCEF33FFEE33FE2C
:06012600ED33FD0202585A
:10012C00020280EC5D046005E8590470030202765B
:10013C00120241580460F6EC4860F2EC7004FDFECB
:10014C00FF22C860DB2481C85009C39860025006A6
:10015C0002027D9850CAF582E9294B4A7005AB82A0
:10016C0002026C75F0007C1A7880C3EF9BEE9AED5E
:10017C0099400DC3EF9BFFEE9AFEED99FDE842F01E
:10018C00DC23ACF0D0E0FFD0E0FED0E0FDAB822071
:10019C00E7101BEB60BAEC2CFCEF33FFEE33FEEDFB
:1001AC0033FD020258E803F830E705C0F075F000A3
:1001BC00EF2FFFEE33FEED33FD40B830E7C280AADF
:1001CC0075F020800E75F010800575F0087D007EAE
:1001DC00007F003392D530D503120673EC334010F8
:1001EC00EF33FFEE33FEED33FDEC33FCD5F0ED22B7
:0E01FC00E5F0247EA2D513CC92E7CDCEFF22F3
:10020A00EDD2E7CD33EC3392D524814006E4FFFEEC
:10021A00FDFC22FCE4CFCECDCC24E0501174FF804B
:10022A00EDC3CC13CCCD13CDCE13CECF13CF0470E8
:07023A00F030D5DE0206736F
:10080B00E51024ABF8E205102278A830070278AB8C
:10081B00E475F0011206B702061B2000EB7F2ED207
:10082B00008018EF540F2490D43440D4FF30040BC5
:10083B00EF24BFB41A0050032461FFE511600215C9
:10084B00110514E5147002051330070D78A8E47533
:10085B00F0011206B7EF0206610217697403D207A3
:10086B008003E4C207F51078A81206C7E4F511F56A
:10087B0013F514E51160077F2012084680F57512F9
:10088B00FFC201C200C202C203C205C206C20812E5
:10089B000814FF700D3007057F00120857AF14AE18
:1008AB001322B4255FC2D5C204120814FF24D0B49E
:1008BB000A00501A75F00A781130D50508B6FF01F9
:1008CB0006C6A426F620D5047002D20380D924CF05
:1008DB00B41A00EF5004C2E5D204020B43D20180DC
:1008EB00C6D20080C0D20280BCD2D580BAD20580DD
:1008FB00B47F201208462002077401B5110040F1A5
:10090B0012080BFF12084602087ED208D206809509
:10091B0012080BFB12080BFA12080BF94A4B700664
:10092B00793A7A0C7BFF20022EE511602A7E008E2D
:10093B008275830012063460060EEE651270F0C2EB
:10094B00D5EBC0E0EAC0E0E9C0E0EE120BA3D0E0CB
:10095B00F9D0E0FAD0E0FB12061BFF60AAEBC0E077
:10096B00EAC0E0E9C0E0120846D0E02401F9D0E08B
:10097B003400FAD0E0FBE5120460DCD512D9808795
:10098B00D20280A2120B8660F7E5127001041202EC
:10099B008BA912600DE512600914F512120C2DEFE4
:1009AB0060F3EA30E702F404C3995077EAF42512B6
:1009BB000430E701E404F512800D120B8660C1EAE6
:1009CB000512251212028BEA78BEF230E701E425FC
:1009DB001204D5120420050114120BA3E4C0E0127B
:1009EB000C2D78BEE2601320E70714F212082E805C
:1009FB002204F2D0E014C0E07F0012082EE5126052
:100A0B00071208251512800B300503120825D0E0BC
:100A1B0002087ED0E00480C5120B8660A0E51204AC
:100A2B0012028B78BEEAF2E5122005026001042463
:0C0A3B0004120BA374FF04C0E0120C2D89
:100A470012082EE5122005026003120825D0E0B532
:100A570012E87F4512083878BEE27F2B30E7047F23
:100A67002DF404C0E0120846D0E075F00A84C0F007
:100A770012082FD0E012082F02087E791080027921
:100A870008C206C2088008D2D5790A8004790AC24A
:100A9700D5E512047002F512E4FAFDFEFF12080B09
:100AA700FC7B0820011312080BFD7B1030000A1293
:100AB700080BFE12080BFF7B20EC3382D592D55032
:100AC70013C3E43000069FFFE49EFEE42001039D6C
:100AD700FDE49CFCE4CBF8C201EC700CCFCECDCC8E
:100AE700E824F8F870F38017C3EF33FFEE33FEED19
:100AF70033FDEC33FCEB33FB994002FB0FD8E9EBFA
:100B0700300105F8D0E0C448B201C0E00AEC4D4E10
:100B17004F78207B0070C2EAB5120040BCC0E012DB
:100B27000BA5D0F0D0E0200104C4C0E0C4B201C0DE
:100B3700F012082FD0F0D5F0EB02087E1206D0098C
:100B47001B530A825808EC4C08E8420A864F0A8E63
:100B5700440A8E490901430A945509C5460A2345A3
:100B6700098F470C5A5008F02D08F42E09172B0847
:100B7700F8230915200C432A08B0480000090FE59F
:100B870012B4FF0375120612080BFC12080BFD12B4
:100B9700080BFE12080BFF78B70202BA790AA2D532
:100BA700200314300509B910020404B9080104A28E
:100BB700D52006025001042002689202B5110050A8
:100BC70034C0E07F203003197F30A202720672051D
:100BD700500F120BFCC202C206C205C2087F30804A
:100BE7000F300503E9C0E0120846300503D0E0F9ED
:100BF700D0E0B511CC3005177F30B9100C1208467C
:100C07007F583004077F788003B9080312084630FD
:100C170002057F2D0208467F202008F87F2B20063B
:100C2700F322920280CF7F00B40700500524B7F863
:100C3700E2FF22286E756C6C2900D20112080B3076
:100C470001F8C201781130D50108F60208B02D501D
:100C570043495812080B2403B405004001E4900CE3
:100C67005593120837743A120837D20375110402E4
:020C77000A82EF
:10024100E9D2E7C933E833F892D5EDD2E7CD33EC03
:0702510033FC5002B2D5227C
:10025800EC30E7100FBF000C0EBE00080DBD000407
:100268000BEB6014A2D5EB13FCED92E7FD2274FFB3
:10027800FCFDFEFF22E480F8A2D574FF13FC7D800C
:03028800E480EF20
:10028B00F920E72824F950037907E4F42402FB183A
:10029B00DBFDE224FB5014E9600DE4F218E204F2FA
:0F02AB00B40A08E4F2D9F57401F20A22C2D5228E
:1002BA00ED33EC3392D5FA602AB4FF33EDC2E77B13
:1002CA00FF60067A0279DFE4227A0279E820D5040F
:1002DA007A0279E3224E614E002B494E46002D499F
:1002EA004E4600E47A08F208DAFC7B00740722E83A
:1002FA00C0E0ECC0E0EDC0E0EEC0E0EFC0E0EA75BF
:10030A00F010A4CAABF075F04DA42BFBE435F0FC59
:10031A00EA2410FAEB34C5FBEC34D9FCEDC2E7FF52
:10032A0075F056A4F42411C5F0F434C58FF0A42A4C
:10033A00E5F03BE43CF220E7141204E5D0E0FFD0FC
:10034A00E0FED0E0FDD0E0FC12012F8014F404128C
:10035A0004E5D0E0FFD0E0FED0E0FDD0E0FC1200E2
:10036A0026D0E0F8E2FAEDD2E7CD33EC332482FB73
:10037A00E4C3CF33CFCE33CECD33CD33DBF37B07DC
:10038A0075F00A846004F2081B0AE5F0F2088FF09F
:10039A00740AA4FFACF08EF0740AA42CFEACF050E0
:1003AA00010C8DF0740AA42CFDE435F0F208DBDEB2
:0303BA00740722A3
:1003BD00020276E86480F8E933E83360110460F0F6
:1003CD00ED33EC337009E8FCE9FDEAFEEBFF2204A6
:1003DD0060DED3EB9FEA9EE99DE8C2E78CF0C2F7A1
:1003ED0095F0400CE8CCF8E9CDF9EACEFAEBCFFB6D
:1003FD0012024185D0F05804700320D5B3E8047083
:10040D00075002B2D502028092D5EC0460F7E4CC1D
:10041D00C0E0C398F8603B94186008400DD0E0FB35
:10042D00020258E4FBFAC9FC8028E830E406E4C96E
:10043D00FBE4CAFCE830E305E4C9CACBFCE8540789
:10044D006010F8C3E913F9EA13FAEB13FBEC13FC94
:10045D00D8F130F52FC3E49CFCEF9BFFEE9AFEED37
:10046D0099FDD0E0FBEF4E4D4C701222DB030202E2
:10047D007DEC2CFCEF33FFEE33FEED33FDED30E77D
:10048D00EB020258EF2BFFEE3AFEED39FDD0E0FB0B
:10049D0050130BBB0003020280ED13FDEE13FEEFB4
:0804AD0013FFEC13FC020258DE
:1004B5003F8000004120000042C80000447A00004F
:1004C500461C400047C35000497424004B189680D1
:1004D5004CBEBC205A0E1BCA6753C21C749DC5AEC8
:1004E500FB60065407601C2323120513EB54386088
:1004F500091204FF12050E120026ECF8EDF9EEFACA
:10050500EFCB22EB12050E80F1543803241C900426
:10051500B5FE93FC0EEE93FD0EEE930ECE93FF22E9
:1012920002196DE493A3F8E493A34003F68001F2EC
:1012A20008DFF48029E493A3F85407240CC8C3335D
:1012B200C4540F4420C8834004F456800146F6DF2C
:1012C200E4800B010204081020408090140AE47E9E
:1012D200019360BCA3FF543F30E509541FFEE49321
:1012E200A360010ECF54C025E060A840B8E493A3E8
:1012F200FAE493A3F8E493A3C8C582C8CAC583CA13
:10130200F0A3C8C582C8CAC583CADFE9DEE780BECA
:01145D00008E
:10052500E709F608DFFA8046E709F208DFFA803EB8
:1005350088828C83E709F0A3DFFA8032E309F608A5
:10054500DFFA8078E309F208DFFA807088828C830D
:10055500E309F0A3DFFA806489828A83E0A3F608C1
:10056500DFFA805889828A83E0A3F208DFFA804C9B
:1005750080D280FA80C680D4806980F28033801072
:1005850080A680EA809A80A880DA80E280CA8033DB
:1005950089828A83ECFAE493A3C8C582C8CCC58353
:1005A500CCF0A3C8C582C8CCC583CCDFE9DEE78023
:1005B5000D89828A83E493A3F608DFF9ECFAA9F0A2
:1005C500EDFB2289828A83ECFAE0A3C8C582C8CCF8
:1005D500C583CCF0A3C8C582C8CCC583CCDFEADE11
:1005E500E880DB89828A83E493A3F208DFF980CC73
:1005F50088F0EF60010E4E60C388F0ED2402B4046C
:100605000050B9F582EB2402B4040050AF23234512
:06061500822390057573BD
:10061B00BB010689828A83E0225002E722BBFE02DD
:09062B00E32289828A83E4932210
:10063400BB010CE58229F582E5833AF583E022507B
:1006440006E92582F8E622BBFE06E92582F8E222C5
:0D065400E58229F582E5833AF583E49322DF
:10066100BB010689828A83F0225002F722BBFE0178
:02067100F32272
:0E067300C3E49FFFE49EFEE49DFDE49CFC2298
:10068100EB9FF5F0EA9E42F0E99D42F0E89C45F0CF
:010691002246
:0C069200ECF208EDF208EEF208EFF222A4
:10069E00D083D082E493F208740193F2087402932B
:0906AE00F208740393F274047362
:1006B700FAE2FB0808E2F925F0F218E2CA3AF22258
:0906C700EBF208EAF208E9F22264
:1006D000D083D082F8E4937012740193700DA3A3B9
:1006E00093F8740193F5828883E4737402936860CD
:0606F000EFA3A3A380DFCD
:10176900EFB40A07740D121774740A309811A89906
:10177900B8130CC2983098FDA899C298B811F630E0
:0717890099FDC299F59922B8
:10139E0078AEEBF208EAF208E9F278B4EBF208EA7A
:1013AE00F208E9F278AEE2FB0808E2F92401F2183D
:1013BE00E2FA3400F212061B70EA78B0E224FFF271
:1013CE0018E234FFF278B1E2FB0808E2F92401F2E8
:1013DE0018E2FA3400F212061BFF78AEE2FB0808A0
:1013EE00E2F92401F218E2FA3400F2EF120661700B
:0C13FE00D478B4E2FB08E2FA08E2F9221D
:1006F600E709F60870FA8046E709F20870FA803EC4
:1007060088828C83E709F0A370FA807EE309F608F5
:1007160070FA8076E309F20870FA806E88828C831C
:10072600E309F0A370FA806289828A83E0A3F6085F
:1007360070FA805689828A83E0A3F20870FA804AAA
:1007460080D280FA80C680D4806580F280318010A5
:1007560080A680EA809A80A880DA80E280CA80310A
:1007660089828A83ECFAE493A3C8C582C8CCC58380
:10077600CCF0A3C8C582C8CCC583CC70E9800D89EE
:10078600828A83E493A3F60870F9ECFAA9F0EDFBEC
:100796002289828A83ECFAE0A3C8C582C8CCC583C5
:1007A600CCF0A3C8C582C8CCC583CC70EA80DD89ED
:1007B600828A83E493A3F20870F980CE88F0ED2450
:1007C60002B4040050C4F582EB2402B4040050BA0B
:0907D6002323458223900746739A
:1010A10078BAEBF208EAF208E9F208E2FB08E2FAA0
:1010B10008E2F912061B700302114878BAE2FB0834
:1010C100E2FA08E2F912061B700302115308E2F971
:1010D10008E2FA08E208C9F208EAF208E9F278BA85
:1010E100E2F908E2FA08E278C3C9F208EAF208E98B
:1010F100F278C0E2FB08E2FA08E2F912061BFF608F
:101101002708E2FB08E2FA08E2F912061B6F7018E1
:1011110078C2E22401F218E23400F278C5E2240137
:10112100F218E23400F280C978C0E2FB08E2FA0862
:10113100E2F912061B7002800E78BCE22401F2185B
:10114100E23400F20210BC78BAE2FB08E2FA08E2EB
:09115100F9227B007A00790022EA
:1007DF00EF4E6012EF60010EEDBB010B89828A8331
:1007EF00F0A3DFFCDEFA2289F05007F709DFFCA93E
:0C07FF00F022BBFEFCF309DFFCA9F02295
:00000001FF
