:03000000020AF001
:0C0AF000787FE4F6D8FD75815F020B37BB
:060EC400120ED2020DF631
:0E0E9E00120EC47590F1120C92120A2080F808
:0D000600C2B5120BF3D2B4120BF7C2B42234
:0D0EAC00D2B5120BF3D2B4120BF7C2B42270
:100E4500ED70048F478005EF2440F547E547448062
:040E5500FF02000692
:100D1E008B448A458946120E45AB44AA45A9461214
:100D2E00051560130546E5467002054514F91205D2
:080D3E0015FF120EAC80E22249
:100E59007F381200067F0C1200067F061200067FFB
:040E6900010200067C
:080BF300C2B68F807F017E0075
:100BFB00D3EF9400EE940040257D26EDD394007442
:100C0B0080948040127C82ECD3940074809480405A
:0E0C1B00031C80F31D80E4EF1F70D51E80D2F5
:010C290022A8
:100E7F00F1F3F2F6F4FCF8F9F9F8FCF4F6F2F3F109
:070D9200E50A93F5907F01D3
:100D9900EFD394007480948040127E78EED394004F
:0C0DA9007480948040031E80F31F80E4DF
:010DB500221B
:100C2A00E4F508F509E4F50AC3E50A940874809422
:100C3A0080500A900E7F120D92050A80EB0509E595
:100C4A000970020508C39408E5086480948240D5B7
:040C5A007590F1227E
:100C5E00E4F508F509E4F50AC3E50A9408748094EE
:100C6E0080500A900E87120D92050A80EB7590F156
:100C7E000509E50970020508C39408E50864809427
:040C8E008240D222AC
:060E8F00010C00010D0141
:0B0EB900D28AD2AAD288D2A8D2AF22DF
:030ED200020EB954
:03000300020ECA20
:040ECA00750C013270
:03001300020ECE0C
:040ECE00750C02326B
:100C9200E50D64017013C296D295E50C64017009EA
:100CA200120C2A750D02E4F50CE50D64027013D2E4
:100CB20096C295E50C64027009120C5E750D01E492
:030CC200F50C220C
:100E2E00D2947F02120ED5C2947F147E00120DD87A
:070E3E00D2947F0D020ED5D6
:100CF300E4F551C3E551940874809480501A3094FC
:100D0300FD7F08120ED5E55225E0F5523094020519
:0A0D1300522094FD055180DBAF5221
:010D1D0022B3
:100B7C00120E2ED29420946E3094FD7F28120ED536
:100B8C00120CF37544008F45120CF37546008F4719
:100B9C00120CF37548008F49120CF3754A008F4BF9
:100BAC00120CF38F507F19120ED5E5452547FFE542
:100BBC00443546FEE5492FFFE5483EFEE54B2FFF49
:100BCC00E54A3EFE7C00EFB55010ECB5060C8545B1
:100BDC004C85474D85494E854B4F753C00854C3DAA
:060BEC00753E00854D3F3F
:010BF20022E0
:030ED500DFFE221B
:100DD800D3EF9400EE940040147D6E7C00ED1D70FE
:0D0DE800011CED4C70F7EF1F70E61E80E35C
:010DF50022DB
:040E9500020E000049
:100DB600E4FEEEC39408748094805015C2A1EF300F
:100DC600E704D2A08002C2A0D2A1EF25E0FF0E80E8
:010DD600E13B
:010DD70022F9
:100D6D00E4FBEBC3940C748094805014ED25E0FDEE
:100D7D00EC33FCD2A1C2A130A5034305010B80E2E7
:040D8D00AF05AE04FC
:010D9100223F
:100E6D00C2B7120DB6C2A10000000000120D6DD266
:010E7D00B7BD
:010E7E002251
:100CC5007FE4120E6D8E0E8F0FAC0EAD0FE4120188
:100CD500C17BE67A3F799C783F120016E4FBFA79EE
:0E0CE50020784112011F1201FA8E0E8F0F228D
:100E12004741533A0054656D703A00256400202022
:0C0E2200202020202020002E0020250091
:040E9900023A000019
:100DF600120E597BFF7A0E7912E4FDFF120D1E7B4F
:0C0E0600FF7A0E79177D01E4FF020D1E3B
:100A2000120CC58E3A8F3B7F147E00120DD8120B2C
:100A30007C7547FF75480E75491D853A4A853B4BC5
:100A40007B007A00792212060D7F0D7E00120DD8F0
:100A50007BFF7A0E7920E4FD7F06120D1E7B007A63
:100A6000007922E4FD7F06120D1E7547FF75480EC2
:100A700075491D853C4A853D4B7B007A00792E12D5
:100A8000060D7547FF75480E75491D853E4A853F21
:100A90004B7B007A00793412060D7F0D7E00120D1B
:100AA000D87B007A00792E7D017F06120D1E7BFF18
:100AB0007A0E79297D017F08120D1E7B007A00795C
:100AC000347D017F09120D1E7BFF7A0E792B7D018B
:100AD0007F0A120D1ED3E53B9496E53A9400500A26
:100AE000E53D9450E53C94004003C2A322D2A322EA
:10001600EC4D6011E8497017ED33EC3304600DE4E4
:10002600FCFFFEFD22E933E8330470F80202661293
:10003600023158046009E4CC248150062850090294
:10004600027028400302026DC0E0EB4A7044B9809A
:1000560006D0E0FB02025CEF4E701CBD8008EBFF91
:10006600EAFEE9FD80EBE98DF0A4FEE5F00200FF73
:10007600E9CDF9EAFEEBFFEF89F0A4FCE5F0CE89C5
:10008600F0A42EFFE435F0CD89F0A42DFEE435F082
:100096008067EF4E7005BD80D780C3EF8BF0A4ACB0
:1000A600F0EE8BF0A42CFCE435F0F8EF8AF0A42CEB
:1000B600E5F038FCE433CB8DF0A42CFCE5F03BF8FE
:1000C600EE8AF0A42CFCE5F038F8E433CF89F0A4EE
:1000D6002CFCE5F038CF3400CE89F0A42FFFE5F0F4
:1000E6003EFEE433C98DF0A42EFEE5F039CD8AF04C
:1000F600A42FFFE5F03EFEE43DFD33D0E0FB5007C4
:100106000BBB000F020270EC2CFCEF33FFEE33FE4C
:06011600ED33FD0202487A
:10011C00020270EC5D046005E8590470030202668B
:10012C00120231580460F6EC4860F2EC7004FDFEEB
:10013C00FF22C860DB2481C85009C39860025006B6
:10014C0002026D9850CAF582E9294B4A7005AB82C0
:10015C0002025C75F0007C1A7880C3EF9BEE9AED7E
:10016C0099400DC3EF9BFFEE9AFEED99FDE842F02E
:10017C00DC23ACF0D0E0FFD0E0FED0E0FDAB822081
:10018C00E7101BEB60BAEC2CFCEF33FFEE33FEED0B
:10019C0033FD020248E803F830E705C0F075F000C3
:1001AC00EF2FFFEE33FEED33FD40B830E7C280AAEF
:1001BC0075F020800E75F010800575F0087D007EBE
:1001CC00007F003392D530D50312056DEC3340100F
:1001DC00EF33FFEE33FEED33FDEC33FCD5F0ED22C7
:0E01EC00E5F0247EA2D513CC92E7CDCEFF2203
:1001FA00EDD2E7CD33EC3392D524814006E4FFFEFD
:10020A00FDFC22FCE4CFCECDCC24E0501174FF805B
:10021A00EDC3CC13CCCD13CDCE13CECF13CF0470F8
:07022A00F030D5DE02056D86
:1005B100E55B2447F8E6055B22784430070278477B
:1005C100E475F00112057B0205152000EB7F2ED2A8
:1005D100008018EF540F2490D43440D4FF30040B22
:1005E100EF24BFB41A0050032461FFE55C600215DB
:1005F1005C055FE55F7002055E30070D7844E475C8
:10060100F00112057BEF02055B020D467403D20770
:100611008003E4C207F55B8B448A458946E4F55CB7
:10062100F55EF55FE55C60077F201205EC80F575EE
:100631005DFFC201C200C202C203C205C206C208F6
:100641001205BAFF700D3007057F001205FDAF5F7F
:10065100AE5E22B4255FC2D5C2041205BAFF24D012
:10066100B40A00501A75F00A785C30D50508B6FF57
:100671000106C6A426F620D5047002D20380D9242F
:10068100CFB41A00EF5004C2E5D2040208EAD20145
:1006910080C6D20080C0D20280BCD2D580BAD20539
:1006A10080B47F201205EC2002077401B55C004084
:1006B100F11205B1FF1205EC020625D208D206801F
:1006C100951205B1FB1205B1FA1205B1F94A4B7049
:1006D1000679E17A097BFF20022EE55C602A7E0023
:1006E1008E8275830012052E60060EEE655D70F038
:1006F100C2D5EBC0E0EAC0E0E9C0E0EE12094AD0A1
:10070100E0F9D0E0FAD0E0FB120515FF60AAEBC0DA
:10071100E0EAC0E0E9C0E01205ECD0E02401F9D044
:10072100E03400FAD0E0FBE55D0460DCD55DD98002
:1007310087D20280A212092D60F7E55D70010412D3
:10074100027BA95D600DE55D600914F55D1209D4B8
:10075100EF60F3EA30E702F404C3995077EAF42535
:100761005D0430E701E404F55D800D12092D60C1DF
:10077100EA055D255D12027BEA785AF630E701E46D
:10078100255D04D55D042005011412094AE4C0E089
:100791001209D4785AE6601320E70714F61205D43B
:1007A100802204F6D0E014C0E07F001205D4E55D9C
:1007B10060071205CB155D800B3005031205CBD008
:1007C100E0020625D0E00480C512092D60A0E55D98
:1007D1000412027B785AEAF6E55D20050260010405
:0507E100240412094A86
:1007E60074FF04C0E01209D41205D4E55D200502A9
:1007F60060031205CBD0E0B55DE87F451205DE78D3
:100806005AE67F2B30E7047F2DF404C0E01205EC96
:10081600D0E075F00A84C0F01205D5D0E01205D5F7
:10082600020625791080027908C206C2088008D21D
:10083600D5790A8004790AC2D5E55D047002F55DB2
:10084600E4FAFDFEFF1205B1FC7B08200113120538
:10085600B1FD7B1030000A1205B1FE1205B1FF7B17
:1008660020EC3382D592D55013C3E43000069FFFA7
:10087600E49EFEE42001039DFDE49CFCE4CBF8C26B
:1008860001EC700CCFCECDCCE824F8F870F38017CD
:10089600C3EF33FFEE33FEED33FDEC33FCEB33FBFE
:1008A600994002FB0FD8E9EB300105F8D0E0C448C7
:1008B600B201C0E00AEC4D4E4F78207B0070C2EAD0
:1008C600B55D0040BCC0E012094CD0F0D0E020017C
:1008D60004C4C0E0C4B201C0F01205D5D0F0D5F012
:1008E600EB02062512058B06C25308295806934CBF
:1008F600068F42082D4F08354408354906A8430897
:100906003B55076C4607CA450736470A0150069706
:100916002D069B2E06BE2B069F2306BC2009EA2A1F
:10092600065748000006B6E55DB4FF03755D06127E
:1009360005B1FC1205B1FD1205B1FE1205B1FF7835
:10094600530202AA790AA2D5200314300509B91068
:10095600020404B9080104A2D520060250010420AD
:1009660002689202B55C005034C0E07F2030031963
:100976007F30A20272067205500F1209A3C202C28C
:1009860006C205C2087F30800F300503E9C0E012B9
:1009960005EC300503D0E0F9D0E0B55CCC300517A6
:1009A6007F30B9100C1205EC7F583004077F788031
:1009B60003B908031205EC3002057F2D0205EC7F12
:1009C600202008F87F2B2006F322920280CF7F009A
:1009D600B4070050052453F8E6FF22286E756C6CA8
:1009E6002900D2011205B13001F8C201785C30D578
:1009F6000108F60206572D504349581205B1240343
:100A0600B405004001E49009FC931205DD743A1226
:0A0A160005DDD203755C0402082917
:10023100E9D2E7C933E833F892D5EDD2E7CD33EC13
:0702410033FC5002B2D5228C
:10024800EC30E7100FBF000C0EBE00080DBD000417
:100258000BEB6014A2D5EB13FCED92E7FD2274FFC3
:10026800FCFDFEFF22E480F8A2D574FF13FC7D801C
:03027800E480EF30
:10027B00F920E72824F950037907E4F42402FB184A
:10028B00DBFDE624FB5014E9600DE4F618E604F6FA
:0F029B00B40A08E4F6D9F57401F60A22C2D52296
:1002AA00ED33EC3392D5FA602AB4FF33EDC2E77B23
:1002BA00FF60067A0279CFE4227A0279D820D5043F
:1002CA007A0279D3224E614E002B494E46002D49BF
:1002DA004E4600E47A08F608DAFC7B00740722E846
:1002EA00C0E0ECC0E0EDC0E0EEC0E0EFC0E0EA75CF
:1002FA00F010A4CAABF075F04DA42BFBE435F0FC6A
:10030A00EA2410FAEB34C5FBEC34D9FCEDC2E7FF62
:10031A0075F056A4F42411C5F0F434C58FF0A42A5C
:10032A00E5F03BE43CF620E7141204D5D0E0FFD018
:10033A00E0FED0E0FDD0E0FC12011F8014F40412AC
:10034A0004D5D0E0FFD0E0FED0E0FDD0E0FC120002
:10035A0016D0E0F8E6FAEDD2E7CD33EC332482FB8F
:10036A00E4C3CF33CFCE33CECD33CD33DBF37B07EC
:10037A0075F00A846004F6081B0AE5F0F6088FF0A7
:10038A00740AA4FFACF08EF0740AA42CFEACF050F0
:10039A00010C8DF0740AA42CFDE435F0F608DBDEBE
:0303AA00740722B3
:1003AD00020266E86480F8E933E83360110460F016
:1003BD00ED33EC337009E8FCE9FDEAFEEBFF2204B6
:1003CD0060DED3EB9FEA9EE99DE8C2E78CF0C2F7B1
:1003DD0095F0400CE8CCF8E9CDF9EACEFAEBCFFB7D
:1003ED0012023185D0F05804700320D5B3E80470A3
:1003FD00075002B2D502027092D5EC0460F7E4CC3E
:10040D00C0E0C398F8603B94186008400DD0E0FB45
:10041D00020248E4FBFAC9FC8028E830E406E4C98E
:10042D00FBE4CAFCE830E305E4C9CACBFCE8540799
:10043D006010F8C3E913F9EA13FAEB13FBEC13FCA4
:10044D00D8F130F52FC3E49CFCEF9BFFEE9AFEED47
:10045D0099FDD0E0FBEF4E4D4C701222DB030202F2
:10046D006DEC2CFCEF33FFEE33FEED33FDED30E79D
:10047D00EB020248EF2BFFEE3AFEED39FDD0E0FB2B
:10048D0050130BBB0003020270ED13FDEE13FEEFD4
:08049D0013FFEC13FC020248FE
:1004A5003F8000004120000042C80000447A00005F
:1004B500461C400047C35000497424004B189680E1
:1004C5004CBEBC205A0E1BCA6753C21C749DC5AED8
:1004D500FB60065407601C2323120503EB543860A8
:1004E500091204EF1204FE120016ECF8EDF9EEFA0B
:1004F500EFCB22EB1204FE80F1543803241C900448
:10050500A5FE93FC0EEE93FD0EEE930ECE93FF2209
:100AFC00020E9EE493A3F8E493A34003F68001F264
:100B0C0008DFF48029E493A3F85407240CC8C333FA
:100B1C00C4540F4420C8834004F456800146F6DFC9
:100B2C00E4800B0102040810204080900E8FE47EBC
:100B3C00019360BCA3FF543F30E509541FFEE493BE
:100B4C00A360010ECF54C025E060A840B8E493A385
:100B5C00FAE493A3F8E493A3C8C582C8CAC583CAB0
:100B6C00F0A3C8C582C8CAC583CADFE9DEE780BE68
:010E9D000054
:10051500BB010689828A83E0225002E722BBFE02E4
:09052500E32289828A83E4932217
:10052E00BB010CE58229F582E5833AF583E0225082
:10053E0006E92582F8E622BBFE06E92582F8E222CC
:0D054E00E58229F582E5833AF583E49322E6
:10055B00BB010689828A83F0225002F722BBFE017F
:02056B00F32279
:0E056D00C3E49FFFE49EFEE49DFDE49CFC229F
:10057B00FAE6FB0808E6F925F0F618E6CA3AF62281
:10058B00D083D082F8E4937012740193700DA3A3FF
:10059B0093F8740193F5828883E473740293686013
:0605AB00EFA3A3A380DF13
:100D4600EFB40A07740D120D51740A309811A89960
:100D5600B8130CC2983098FDA899C298B811F6300D
:070D660099FDC299F59922E5
:00000001FF
