:0300000002129B4E
:0C129B00787FE4F6D8FD7581210212E294
:1018AB0053494D206973206C6F6164696E672E2EEE
:0C18BB00004741533A0054656D703A003C
:10167A001218FB1219BF1218C77BFF7A1879ABE44C
:10168A00FDFF12160C120F0A7F011200067BFF7A69
:10169A001879BCE4FDFF12160C7BFF7A1879C17D1C
:0616AA0001E4FF02160C32
:0E199E0012167A7590F1121522120C7980F84B
:0D000600C2B5121643D2B4121647C2B4227E
:0D001600D2B5121643D2B4121647C2B4225E
:1018E300ED700678E3EFF28006EF244078E3F278B8
:0818F300E3E24480FF0200065D
:10160C0078E0EBF208EAF208E9F21218E378E0E28B
:10161C00FB08E2FA08E2F912061B601A78E0E2FB1A
:10162C000808E2F92401F218E2FA3400F212061B5F
:07163C00FF12001680D72207
:101954007F381200067F0C1200067F061200067FF5
:041964000102000676
:08164300C2B68F807F017E001A
:10164B00D3EF9400EE940040257D26EDD3940074E7
:10165B0080948040127C82ECD39400748094804000
:0E166B00031C80F31D80E4EF1F70D51E80D29B
:01167900224E
:10198E00F1F3F2F6F4FCF8F9F9F8FCF4F6F2F3F1EF
:06180B00EF93F5907F0150
:10181100EFD394007480948040127E78EED39400CC
:0C1821007480948040031E80F31F80E45C
:01182D002298
:1014A200C2A6E47800F208F2E47802F27802E2FFDF
:1014B200C3940874809480500B90198E12180BE21A
:1014C20004F280E87801E22401F218E23400F2C367
:1014D20008E2940818E26480948240CCD2A6759007
:0214E200F122F5
:1014E400E47800F208F2E47802F27802E2FFC394AE
:1014F4000874809480500B90199612180BE204F231
:1015040080E87590F17801E22401F218E23400F2E7
:0E151400C308E2940818E26480948240C92261
:1013B3008C223137383635363737383833009C0589
:1013C30047617320666C616D656F75742068617A1F
:1013D300617264207761726E696E670081040081B7
:0213E3002101E6
:0B19AC00D28AD2AAD288D2A8D2AF22E1
:0319BF000219AC5E
:0300030002192AB5
:10192A00C0E0C0D075D000C00078047401F2D000C5
:05193A00D0D0D0E03226
:0300130002193F90
:10193F00C0E0C0D075D000C00078047402F2D000AF
:05194F00D0D0D0E03211
:101522007821E264017017C296D2957804E26401D0
:10153200700C1214A278217402F2E47804F2782179
:10154200E264027017D296C2957804E26402700CCB
:0D1552001214E478217401F2E47804F2220E
:10191300D2947F021219C2C2947F147E0012186FF0
:07192300D2947F0D0219C2EE
:0515D400E4F208EFF253
:1015D900E478EDF278EDE2C3940874809480501EAB
:1015E9003094FD7F081219C278EEE225E0F23094BA
:1015F90003E204F22094FD78EDE204F280D678EE5D
:02160900E2FFFE
:01160B0022BC
:10120800121913D29430940302129A3094FD7F2855
:101218001219C21215D978E01215D478E21215D431
:1012280078E41215D478E61215D478ECEFF27F1929
:101238001219C278E2E2FE08E2FF78E1E22FFF1815
:10124800E23EFE78E5E22FFF18E23EFE78E6E2FC99
:1012580008E2FD2FFFEC3EFE78ECE27A00B5071CB1
:10126800EAB5061878E008E278E8F278E208E27869
:10127800E9F278E408E278EAF208EDF278E8E2FFC9
:1012880078CCE4F208EFF278E9E2FF78CEE4F208ED
:02129800EFF273
:01129A002231
:0319C200DFFE2223
:10186F00D3EF9400EE940040147D6E7C00ED1D705C
:0D187F00011CED4C70F7EF1F70E61E80E3BA
:01188C002239
:0413E500822E000054
:10182E00E4FEEEC39408748094805015C2A1EF308C
:10183E00E704D2A08002C2A0D2A1EF25E0FF0E8065
:01184E00E1B8
:01184F002276
:1017C100E4FBEBC3940C748094805015ED25E0FD8F
:1017D100EC33FCD2A1C2A130A504ED4401FD0B8084
:0517E100E1AF05AE04BC
:0117E60022E0
:10197C00C2B712182EC2A100000000001217C1D26B
:01198C00B7A3
:01198D002237
:1016E4007FE412197C782EEEF208EFF2FDAC06E4EA
:1016F4001201D17BE67A3F799C783F120026E4FB05
:10170400FA7920784112012F12020A782EEEF2089B
:03171400EFF222CF
:0613E900815A01815F0042
:10174600E4FDFFFEC297C2A2EDC39410748094809C
:101756005015D2A2EF25E0FFEE33FE30A404EF448D
:0917660001FFC2A20D80E1D2973F
:01176F002257
:10188D00D3EF9400EE940040147D727C00ED1D703A
:0D189D00011CED4C70F7EF1F70E61E80E39C
:0118AA00221B
:10159A0078E0740BF2121746EF5404785EF2E2FD1B
:1015AA001313543FF2EF25E0FFEE33C4F854F0C8AA
:1015BA0068FEEFC4540F48FF7802CEC313CE13D887
:0915CA00F9FF785BEEF208EFF284
:0115D30022F5
:0313EF0081660014
:1018FB00759850D29CE4F587758920758DFD758B95
:08190B00FDD28ED2AFD2AC2256
:0819B7008F993099FDC29922BD
:1016B00078ECEBF208EAF208E9F278ECE2FB08E2F7
:1016C000FA08E2F912061B601A78ECE2FB0808E25D
:1016D000F92401F218E2FA3400F212061BFF121983
:0416E000B780D722D6
:101717007863EBF208EAF208E9F27863E2F908E2A3
:10172700FA08E278EFC9F208EAF208E9F27B017AEF
:0F1737000079F81210B6E94A4B6002D322C322A0
:101968007E007F647D007B017A0079F81207DFE44E
:041978007866F22279
:0300230002155F64
:10155F00C0E0C083C082C0D075D008C2AC30982024
:10156F00C2987866E224F8F582E43400F583E599B1
:10157F00F0E204F2E2C39464748094804002E4F2D7
:0B158F00D2ACD0D0D082D083D0E032AC
:1013270041540D0A004F4B0D0A0041542B435049BD
:101337004E3F0D0A0052454144590041542B434D3D
:1013470047463D310D0A0041542B43534D503D3123
:10135700372C3136372C302C380D0A0041542B43AB
:101367005343533D2247534D220D0A0041542B430B
:101377004D47533D2200220D0A003E0041544400D0
:101387003B0D0A0000000000000000000000000004
:101397000000000000000000000000000000000046
:0C13A7000000000000000000000000003A
:0613F200848400000000ED
:100F0A001218FB78E374FFF2087413F208742CF2D7
:100F1A000812069E00000BB8120FF1EF64014E6032
:100F2A00031217701217E778E374FFF2087413F2CA
:100F3A0008743CF20812069E000003E878EA740A74
:100F4A00F27BFF7A137931120FFCEF64014E6003D2
:100F5A001217701217E778E374FFF2087413F20895
:100F6A00742CF20812069E000003E878EA740AF26A
:100F7A007BFF7A137942120FFCEF64014E60031271
:100F8A0017701217E778E374FFF2087413F2087403
:100F9A002CF20812069E00000BB878EA740AF27B5B
:100FAA00FF7A13794E120FFCEF64014E6003121799
:100FBA00701217E778E374FFF2087413F208742CBE
:100FCA00F20812069E000003E878EA740AF27BFF30
:100FDA007A137963120FFCEF64014E6003121770E3
:070FEA007F0A7E000217EBF5
:0A0DF6007867EBF208EAF208E9F270
:100E0000785C7C017D017BFF7A13798B7E007F14F7
:100E10001205F57E007F147D007B017A01795C125A
:100E200007DF785C7C017D017BFF7A137973120701
:100E3000C27867E2F908E2FA08E278DAC9F208EA69
:100E4000F208E9F27B017A01795C12143678DA74DF
:100E5000FFF2087413F208747DF27B017A01795C69
:100E600012143678E374FFF2087413F2087481F2F6
:100E70000812069E00000BB878EA740AF27B017A29
:100E800001795C120FFCEF64014E60031217707859
:100E90006AE2F908E2FA08E278E3C9F208EAF2083D
:100EA000E9F20812069E00000BB878EA740AF2789C
:100EB0006AE2FB08E2FA08E2F9120FFCEF64014E65
:100EC00060031217707E007F287D007B017A017914
:100ED0005C1207DF90015C741AF0E4A3F078E3740D
:100EE000FFF2087413F208742CF20812069E000038
:100EF000271078EA7405F27B017A01795C120FFC05
:090F0000EF64014E60031217704A
:010F090022C5
:0A116F00786DEBF208EAF208E9F2ED
:10117900087C007DFE7BFF7A13799F7E007F141225
:1011890005F57E007F147D007BFE7A0079701207D9
:10119900DF78707C007DFE7BFF7A1379831207C2AA
:1011A900786DE2F908E2FA08E278DAC9F208EAF2B7
:1011B90008E9F27BFE7A00797012143678DA74FF46
:1011C900F2087413F2087487F27BFE7A00797012C0
:1011D900143678E374FFF2087413F208742CF208D9
:1011E90012069E0000271078EA740AF27BFE7A0044
:0E11F9007970120FFCEF64014E600312177044
:0112070022C4
:1017700078E374FFF2087413F208742CF20812066E
:101780009E00000064120FF1EF64014E7003121905
:0A179000C57FC87E001217EB80D65B
:0319C5000200001D
:0B0FF10078EA740AF27BFF7A1379277C
:0A0FFC0078E0EBF208EAF208E9F2EF
:10100600121968E478EBF278EAE2FF08E2C39F403F
:10101600030210AF78E0E2FB08E2FA08E2F91216E2
:10102600B0788412069E0000000078E6E2FC08E232
:10103600FD08E2FE08E2FF7884E2FB08E2F908E236
:10104600FA08E2CBF8C3120681504D7F647E001287
:1010560017EB7884E2FC08E2FD08E2FE08E224646D
:10106600FFE43EFEE43DFDE43CFC78841206927803
:10107600E3E2F908E2FA08E278EFC9F208EAF208D0
:10108600E9F27B017A0079F81210B6E94A4B609AC8
:101096001219687E007F0122788412069E000000E5
:0F10A6000078EBE204F202100D121968E4FEFF6D
:0110B5002218
:0417E7007F0A7E00F7
:1017EB00E4FDFCC3ED9FEC9E5015E4FBFA0BBB0034
:0F17FB00010AEB647B4A70F50DBD00010C80E420
:01180A0022BB
:101850004741533A0054656D703A002564002020DA
:0F186000202020202020202020002E00202500E6
:1013F8008C883137383635363737383833009CB033
:1014080047617320666C616D656F75742068617AD9
:10141800617264207761726E696E670082AE000047
:0D14280082D4000081AD0081D600819400C7
:1018C7001219547BFF7A187950E4FDFF12160C7B2E
:0C18D700FF7A1879557D01E4FF02160C21
:100C79001216E478AEEEF208EFF212159A78D4EE75
:100C8900F208EFF27F147E0012186F12120878E34F
:100C990074FFF2087418F208745BF278AEE2FF0888
:100CA900E278E6CFF208EFF27BFE7A007995120836
:100CB900677F0D7E0012186F7BFF7A18795EE4FD5D
:100CC9007F0612160C7BFE7A007995E4FD7F0612E9
:100CD900160C78E374FFF2087418F208745BF27862
:100CE900CCE2FF08E278E6CFF208EFF27BFE7A0069
:100CF90079A112086778E374FFF2087418F208748E
:100D09005BF278CEE2FF08E278E6CFF208EFF27BF9
:100D1900FE7A0079A71208677F0D7E0012186F7896
:100D2900E374FFF2087418F208745BF278D4E2FFF6
:100D390008E278E6CFF208EFF27BFE7A00799B129F
:100D490008677BFE7A00799BE4FD7F0C12160C7B09
:100D5900FE7A0079A17D017F0612160C7BFF7A18B5
:100D6900796A7D017F0812160C7BFE7A0079A77DCE
:100D7900017F0912160C7BFF7A18796C7D017F0AB5
:100D890012160CD378AFE2949618E29400500B78BF
:100D9900CDE2945018E2940040157894E2701678E8
:100DA900217402F27804F2C2A3789414F28006E462
:100DB9007894F2D2A378D4E2FE08E2FFD39450EEFD
:100DC9009400400C78AD7401F278D6E2700204F216
:100DD90078ADE264017015C3EF9423EE9400500CD2
:0D0DE90078217402F27804F2E478ADF22271
:10002600EC4D6011E8497017ED33EC3304600DE4D4
:10003600FCFFFEFD22E933E8330470F80202761273
:10004600024158046009E4CC248150062850090274
:10005600028028400302027DC0E0EB4A7044B9806A
:1000660006D0E0FB02026CEF4E701CBD8008EBFF71
:10007600EAFEE9FD80EBE98DF0A4FEE5F002010F52
:10008600E9CDF9EAFEEBFFEF89F0A4FCE5F0CE89B5
:10009600F0A42EFFE435F0CD89F0A42DFEE435F072
:1000A6008067EF4E7005BD80D780C3EF8BF0A4ACA0
:1000B600F0EE8BF0A42CFCE435F0F8EF8AF0A42CDB
:1000C600E5F038FCE433CB8DF0A42CFCE5F03BF8EE
:1000D600EE8AF0A42CFCE5F038F8E433CF89F0A4DE
:1000E6002CFCE5F038CF3400CE89F0A42FFFE5F0E4
:1000F6003EFEE433C98DF0A42EFEE5F039CD8AF03C
:10010600A42FFFE5F03EFEE43DFD33D0E0FB5007B3
:100116000BBB000F020280EC2CFCEF33FFEE33FE2C
:06012600ED33FD0202585A
:10012C00020280EC5D046005E8590470030202765B
:10013C00120241580460F6EC4860F2EC7004FDFECB
:10014C00FF22C860DB2481C85009C39860025006A6
:10015C0002027D9850CAF582E9294B4A7005AB82A0
:10016C0002026C75F0007C1A7880C3EF9BEE9AED5E
:10017C0099400DC3EF9BFFEE9AFEED99FDE842F01E
:10018C00DC23ACF0D0E0FFD0E0FED0E0FDAB822071
:10019C00E7101BEB60BAEC2CFCEF33FFEE33FEEDFB
:1001AC0033FD020258E803F830E705C0F075F000A3
:1001BC00EF2FFFEE33FEED33FD40B830E7C280AADF
:1001CC0075F020800E75F010800575F0087D007EAE
:1001DC00007F003392D530D503120673EC334010F8
:1001EC00EF33FFEE33FEED33FDEC33FCD5F0ED22B7
:0E01FC00E5F0247EA2D513CC92E7CDCEFF22F3
:10020A00EDD2E7CD33EC3392D524814006E4FFFEEC
:10021A00FDFC22FCE4CFCECDCC24E0501174FF804B
:10022A00EDC3CC13CCCD13CDCE13CECF13CF0470E8
:07023A00F030D5DE0206736F
:10080B00E51024E3F8E205102278E030070278E3E4
:10081B00E475F0011206B702061B2000EB7F2ED207
:10082B00008018EF540F2490D43440D4FF30040BC5
:10083B00EF24BFB41A0050032461FFE511600215C9
:10084B00110514E5147002051330070D78E0E475FB
:10085B00F0011206B7EF02066102179A7403D20772
:10086B008003E4C207F51078E01206C7E4F511F532
:10087B0013F514E51160077F2012084680F57512F9
:10088B00FFC201C200C202C203C205C206C20812E5
:10089B000814FF700D3007057F00120857AF14AE18
:1008AB001322B4255FC2D5C204120814FF24D0B49E
:1008BB000A00501A75F00A781130D50508B6FF01F9
:1008CB0006C6A426F620D5047002D20380D924CF05
:1008DB00B41A00EF5004C2E5D204020B43D20180DC
:1008EB00C6D20080C0D20280BCD2D580BAD20580DD
:1008FB00B47F201208462002077401B5110040F1A5
:10090B0012080BFF12084602087ED208D206809509
:10091B0012080BFB12080BFA12080BF94A4B700664
:10092B00793A7A0C7BFF20022EE511602A7E008E2D
:10093B008275830012063460060EEE651270F0C2EB
:10094B00D5EBC0E0EAC0E0E9C0E0EE120BA3D0E0CB
:10095B00F9D0E0FAD0E0FB12061BFF60AAEBC0E077
:10096B00EAC0E0E9C0E0120846D0E02401F9D0E08B
:10097B003400FAD0E0FBE5120460DCD512D9808795
:10098B00D20280A2120B8660F7E5127001041202EC
:10099B008BA912600DE512600914F512120C2DEFE4
:1009AB0060F3EA30E702F404C3995077EAF42512B6
:1009BB000430E701E404F512800D120B8660C1EAE6
:1009CB000512251212028BEA78F6F230E701E425C4
:1009DB001204D5120420050114120BA3E4C0E0127B
:1009EB000C2D78F6E2601320E70714F212082E8024
:1009FB002204F2D0E014C0E07F0012082EE5126052
:100A0B00071208251512800B300503120825D0E0BC
:100A1B0002087ED0E00480C5120B8660A0E51204AC
:100A2B0012028B78F6EAF2E512200502600104242B
:0C0A3B0004120BA374FF04C0E0120C2D89
:100A470012082EE5122005026003120825D0E0B532
:100A570012E87F4512083878F6E27F2B30E7047FEB
:100A67002DF404C0E0120846D0E075F00A84C0F007
:100A770012082FD0E012082F02087E791080027921
:100A870008C206C2088008D2D5790A8004790AC24A
:100A9700D5E512047002F512E4FAFDFEFF12080B09
:100AA700FC7B0820011312080BFD7B1030000A1293
:100AB700080BFE12080BFF7B20EC3382D592D55032
:100AC70013C3E43000069FFFE49EFEE42001039D6C
:100AD700FDE49CFCE4CBF8C201EC700CCFCECDCC8E
:100AE700E824F8F870F38017C3EF33FFEE33FEED19
:100AF70033FDEC33FCEB33FB994002FB0FD8E9EBFA
:100B0700300105F8D0E0C448B201C0E00AEC4D4E10
:100B17004F78207B0070C2EAB5120040BCC0E012DB
:100B27000BA5D0F0D0E0200104C4C0E0C4B201C0DE
:100B3700F012082FD0F0D5F0EB02087E1206D0098C
:100B47001B530A825808EC4C08E8420A864F0A8E63
:100B5700440A8E490901430A945509C5460A2345A3
:100B6700098F470C5A5008F02D08F42E09172B0847
:100B7700F8230915200C432A08B0480000090FE59F
:100B870012B4FF0375120612080BFC12080BFD12B4
:100B9700080BFE12080BFF78EF0202BA790AA2D5FA
:100BA700200314300509B910020404B9080104A28E
:100BB700D52006025001042002689202B5110050A8
:100BC70034C0E07F203003197F30A202720672051D
:100BD700500F120BFCC202C206C205C2087F30804A
:100BE7000F300503E9C0E0120846300503D0E0F9ED
:100BF700D0E0B511CC3005177F30B9100C1208467C
:100C07007F583004077F788003B9080312084630FD
:100C170002057F2D0208467F202008F87F2B20063B
:100C2700F322920280CF7F00B40700500524EFF82B
:100C3700E2FF22286E756C6C2900D20112080B3076
:100C470001F8C201781130D50108F60208B02D501D
:100C570043495812080B2403B405004001E4900CE3
:100C67005593120837743A120837D20375110402E4
:020C77000A82EF
:10024100E9D2E7C933E833F892D5EDD2E7CD33EC03
:0702510033FC5002B2D5227C
:10025800EC30E7100FBF000C0EBE00080DBD000407
:100268000BEB6014A2D5EB13FCED92E7FD2274FFB3
:10027800FCFDFEFF22E480F8A2D574FF13FC7D800C
:03028800E480EF20
:10028B00F920E72824F950037907E4F42402FB183A
:10029B00DBFDE224FB5014E9600DE4F218E204F2FA
:0F02AB00B40A08E4F2D9F57401F20A22C2D5228E
:1002BA00ED33EC3392D5FA602AB4FF33EDC2E77B13
:1002CA00FF60067A0279DFE4227A0279E820D5040F
:1002DA007A0279E3224E614E002B494E46002D499F
:1002EA004E4600E47A08F208DAFC7B00740722E83A
:1002FA00C0E0ECC0E0EDC0E0EEC0E0EFC0E0EA75BF
:10030A00F010A4CAABF075F04DA42BFBE435F0FC59
:10031A00EA2410FAEB34C5FBEC34D9FCEDC2E7FF52
:10032A0075F056A4F42411C5F0F434C58FF0A42A4C
:10033A00E5F03BE43CF220E7141204E5D0E0FFD0FC
:10034A00E0FED0E0FDD0E0FC12012F8014F404128C
:10035A0004E5D0E0FFD0E0FED0E0FDD0E0FC1200E2
:10036A0026D0E0F8E2FAEDD2E7CD33EC332482FB73
:10037A00E4C3CF33CFCE33CECD33CD33DBF37B07DC
:10038A0075F00A846004F2081B0AE5F0F2088FF09F
:10039A00740AA4FFACF08EF0740AA42CFEACF050E0
:1003AA00010C8DF0740AA42CFDE435F0F208DBDEB2
:0303BA00740722A3
:1003BD00020276E86480F8E933E83360110460F0F6
:1003CD00ED33EC337009E8FCE9FDEAFEEBFF2204A6
:1003DD0060DED3EB9FEA9EE99DE8C2E78CF0C2F7A1
:1003ED0095F0400CE8CCF8E9CDF9EACEFAEBCFFB6D
:1003FD0012024185D0F05804700320D5B3E8047083
:10040D00075002B2D502028092D5EC0460F7E4CC1D
:10041D00C0E0C398F8603B94186008400DD0E0FB35
:10042D00020258E4FBFAC9FC8028E830E406E4C96E
:10043D00FBE4CAFCE830E305E4C9CACBFCE8540789
:10044D006010F8C3E913F9EA13FAEB13FBEC13FC94
:10045D00D8F130F52FC3E49CFCEF9BFFEE9AFEED37
:10046D0099FDD0E0FBEF4E4D4C701222DB030202E2
:10047D007DEC2CFCEF33FFEE33FEED33FDED30E77D
:10048D00EB020258EF2BFFEE3AFEED39FDD0E0FB0B
:10049D0050130BBB0003020280ED13FDEE13FEEFB4
:0804AD0013FFEC13FC020258DE
:1004B5003F8000004120000042C80000447A00004F
:1004C500461C400047C35000497424004B189680D1
:1004D5004CBEBC205A0E1BCA6753C21C749DC5AEC8
:1004E500FB60065407601C2323120513EB54386088
:1004F500091204FF12050E120026ECF8EDF9EEFACA
:10050500EFCB22EB12050E80F1543803241C900426
:10051500B5FE93FC0EEE93FD0EEE930ECE93FF22E9
:1012A70002199EE493A3F8E493A34003F68001F2A6
:1012B70008DFF48029E493A3F85407240CC8C33348
:1012C700C4540F4420C8834004F456800146F6DF17
:1012D700E4800B01020408102040809013B3E47EE1
:1012E700019360BCA3FF543F30E509541FFEE4930C
:1012F700A360010ECF54C025E060A840B8E493A3D3
:10130700FAE493A3F8E493A3C8C582C8CAC583CAFD
:10131700F0A3C8C582C8CAC583CADFE9DEE780BEB5
:0114350000B6
:10052500E709F608DFFA8046E709F208DFFA803EB8
:1005350088828C83E709F0A3DFFA8032E309F608A5
:10054500DFFA8078E309F208DFFA807088828C830D
:10055500E309F0A3DFFA806489828A83E0A3F608C1
:10056500DFFA805889828A83E0A3F208DFFA804C9B
:1005750080D280FA80C680D4806980F28033801072
:1005850080A680EA809A80A880DA80E280CA8033DB
:1005950089828A83ECFAE493A3C8C582C8CCC58353
:1005A500CCF0A3C8C582C8CCC583CCDFE9DEE78023
:1005B5000D89828A83E493A3F608DFF9ECFAA9F0A2
:1005C500EDFB2289828A83ECFAE0A3C8C582C8CCF8
:1005D500C583CCF0A3C8C582C8CCC583CCDFEADE11
:1005E500E880DB89828A83E493A3F208DFF980CC73
:1005F50088F0EF60010E4E60C388F0ED2402B4046C
:100605000050B9F582EB2402B4040050AF23234512
:06061500822390057573BD
:10061B00BB010689828A83E0225002E722BBFE02DD
:09062B00E32289828A83E4932210
:10063400BB010CE58229F582E5833AF583E022507B
:1006440006E92582F8E622BBFE06E92582F8E222C5
:0D065400E58229F582E5833AF583E49322DF
:10066100BB010689828A83F0225002F722BBFE0178
:02067100F32272
:0E067300C3E49FFFE49EFEE49DFDE49CFC2298
:10068100EB9FF5F0EA9E42F0E99D42F0E89C45F0CF
:010691002246
:0C069200ECF208EDF208EEF208EFF222A4
:10069E00D083D082E493F208740193F2087402932B
:0906AE00F208740393F274047362
:1006B700FAE2FB0808E2F925F0F218E2CA3AF22258
:0906C700EBF208EAF208E9F22264
:1006D000D083D082F8E4937012740193700DA3A3B9
:1006E00093F8740193F5828883E4737402936860CD
:0606F000EFA3A3A380DFCD
:10179A00EFB40A07740D1217A5740A309811A899A4
:1017AA00B8130CC2983098FDA899C298B811F630AF
:0717BA0099FDC299F5992287
:1014360078D7EBF208EAF208E9F278DDEBF208EA8F
:10144600F208E9F278D7E2FB0808E2F92401F2187B
:10145600E2FA3400F212061B70EA78D9E224FFF2AF
:1014660018E234FFF278DAE2FB0808E2F92401F226
:1014760018E2FA3400F212061BFF78D7E2FB0808DE
:10148600E2F92401F218E2FA3400F2EF1206617072
:0C149600D478DDE2FB08E2FA08E2F9225B
:1006F600E709F60870FA8046E709F20870FA803EC4
:1007060088828C83E709F0A370FA807EE309F608F5
:1007160070FA8076E309F20870FA806E88828C831C
:10072600E309F0A370FA806289828A83E0A3F6085F
:1007360070FA805689828A83E0A3F20870FA804AAA
:1007460080D280FA80C680D4806580F280318010A5
:1007560080A680EA809A80A880DA80E280CA80310A
:1007660089828A83ECFAE493A3C8C582C8CCC58380
:10077600CCF0A3C8C582C8CCC583CC70E9800D89EE
:10078600828A83E493A3F60870F9ECFAA9F0EDFBEC
:100796002289828A83ECFAE0A3C8C582C8CCC583C5
:1007A600CCF0A3C8C582C8CCC583CC70EA80DD89ED
:1007B600828A83E493A3F20870F980CE88F0ED2450
:1007C60002B4040050C4F582EB2402B4040050BA0B
:0907D6002323458223900746739A
:1010B60078ECEBF208EAF208E9F208E2FB08E2FA59
:1010C60008E2F912061B700302115D78ECE2FB08D8
:1010D600E2FA08E2F912061B700302116808E2F947
:1010E60008E2FA08E208C9F208EAF208E9F278EC3E
:1010F600E2F908E2FA08E278F5C9F208EAF208E944
:10110600F278F2E2FB08E2FA08E2F912061BFF6047
:101116002708E2FB08E2FA08E2F912061B6F7018CC
:1011260078F4E22401F218E23400F278F7E22401BE
:10113600F218E23400F280C978F2E2FB08E2FA081B
:10114600E2F912061B7002800E78EEE22401F21814
:10115600E23400F20210D178ECE2FB08E2FA08E28F
:09116600F9227B007A00790022D5
:1007DF00EF4E6012EF60010EEDBB010B89828A8331
:1007EF00F0A3DFFCDEFA2289F05007F709DFFCA93E
:0C07FF00F022BBFEFCF309DFFCA9F02295
:00000001FF
