:03000000020016E5
:0C001600787FE4F6D8FD75811002005DD3
:0602410012025302018DC0
:0B0220001202417590F11201A980FB51
:0D000600C2B51200A2D2B41200A6C2B422EC
:0D021300D2B51200A2D2B41200A6C2B422CD
:1001DB00ED70048F0F8005EF2440F50FE50F448081
:0401EB00FF02000609
:100141008B0C8A0D890E1201DBAB0CAA0DA90E12C4
:1001510001C26013050EE50E7002050D14F91201BE
:08016100C2FF12021380E2222A
:1001EF007F381200067F0C1200067F061200067F72
:0401FF0001020006F3
:0800A200C2B68F807F017E00D1
:1000AA00D3EF9400EE940040257D26EDD39400749E
:1000BA0080948040127C82ECD394007480948040B7
:0E00CA00031C80F31D80E4EF1F70D51E80D252
:0100D8002205
:10020300F1F3F2F6F4FCF8F9F9F8FCF4F6F2F3F191
:07016900E50A93F5907F0108
:10017000EFD394007480948040127E78EED3940084
:0C0180007480948040031E80F31F80E414
:01018C002250
:1000D900E4F508F509E4F50AC3E50A94087480947F
:1000E90080500A900203120169050A80EB0509E5AF
:1000F9000970020508C39408E5086480948240D514
:040109007590F122DA
:10010D00E4F508F509E4F50AC3E50A94087480944A
:10011D0080500A90020B120169050A80EB7590F16F
:10012D000509E50970020508C39408E50864809483
:04013D008240D22208
:03024F000110009B
:0B022B00D28AD2AAD288D2A8D2AF2279
:0302530002022B79
:03000300020247AF
:0402470075100132FB
:0300130002024B9B
:04024B0075100232F6
:1001A900E510640170061200D9E4F510E510640247
:0901B900700612010DE4F510229C
:0B0236004741533A0054656D703A00D8
:10018D001201EF7BFF7A027936E4FDFF1201417B0C
:0C019D00FF7A02793B7D01E4FF02014182
:10002200020220E493A3F8E493A34003F68001F2D2
:1000320008DFF48029E493A3F85407240CC8C333DF
:10004200C4540F4420C8834004F456800146F6DFAE
:10005200E4800B010204081020408090024FE47EED
:10006200019360BCA3FF543F30E509541FFEE493A3
:10007200A360010ECF54C025E060A840B8E493A36A
:10008200FAE493A3F8E493A3C8C582C8CAC583CA95
:10009200F0A3C8C582C8CAC583CADFE9DEE780BE4D
:0102520000AB
:1001C200BB010689828A83E0225002E722BBFE023B
:0901D200E32289828A83E493226E
:00000001FF
