:030000000212C128
:0C12C100787FE4F6D8FD75812102130847
:1018D10053494D206973206C6F6164696E672E2EC8
:0C18E100004741533A0054656D703A0016
:1016A0001219211219E51218ED7BFF7A1879D1E48D
:1016B000FDFF121632120F307F011200067BFF7AF7
:1016C0001879E2E4FDFF1216327BFF7A1879E77D84
:0616D00001E4FF021632E6
:0E19C4001216A07590F1121548120C7980F8D9
:0D000600C2B5121669D2B412166DC2B42232
:0D001600D2B5121669D2B412166DC2B42212
:10190900ED700678D4EFF28006EF244078D4F278AF
:08191900D4E24480FF02000645
:1016320078D1EBF208EAF208E9F212190978D1E25C
:10164200FB08E2FA08E2F912061B601A78D1E2FB03
:101652000808E2F92401F218E2FA3400F212061B39
:07166200FF12001680D722E1
:10197A007F381200067F0C1200067F061200067FCF
:04198A000102000650
:08166900C2B68F807F017E00F4
:10167100D3EF9400EE940040257D26EDD3940074C1
:1016810080948040127C82ECD394007480948040DA
:0E169100031C80F31D80E4EF1F70D51E80D275
:01169F002228
:1019B400F1F3F2F6F4FCF8F9F9F8FCF4F6F2F3F1C9
:06183100EF93F5907F012A
:10183700EFD394007480948040127E78EED39400A6
:0C1847007480948040031E80F31F80E436
:011853002272
:1014C800C2A6E47800F208F2E47802F27802E2FFB9
:1014D800C3940874809480500B9019B4121831E2A8
:1014E80004F280E87801E22401F218E23400F2C341
:1014F80008E2940818E26480948240CCD2A67590E1
:02150800F122CE
:10150A00E47800F208F2E47802F27802E2FFC39487
:10151A000874809480500B9019BC121831E204F2BE
:10152A0080E87590F17801E22401F218E23400F2C1
:0E153A00C308E2940818E26480948240C9223B
:1013D9008C223137383635363737383833009C0563
:1013E90047617320666C616D656F75742068617AF9
:1013F900617264207761726E696E67008104008191
:021409002101BF
:0B19D200D28AD2AAD288D2A8D2AF22BB
:0319E5000219D212
:030003000219508F
:10195000C0E0C0D075D000C00078047401F2D0009F
:05196000D0D0D0E03200
:030013000219656A
:10196500C0E0C0D075D000C00078047402F2D00089
:05197500D0D0D0E032EB
:101548007821E264017017C296D2957804E26401AA
:10155800700C1214C878217402F2E47804F278212D
:10156800E264027017D296C2957804E26402700CA5
:0D15780012150A78217401F2E47804F222C1
:10193900D2947F021219E8C2947F147E001218957E
:07194900D2947F0D0219E8A2
:0515FA00E4F208EFF22D
:1015FF00E478DEF278DEE2C3940874809480501EA3
:10160F003094FD7F081219E878DFE225E0F230947C
:10161F0003E204F22094FD78DEE204F280D678DF54
:02162F00E2FFD8
:011631002296
:10122E00121939D2943094030212C03094FD7F28E3
:10123E001219E81215FF78D11215FA78D31215FA91
:10124E0078D51215FA78D71215FA78DDEFF27F19E4
:10125E001219E878D3E2FE08E2FF78D2E22FFF18E7
:10126E00E23EFE78D6E22FFF18E23EFE78D7E2FC91
:10127E0008E2FD2FFFEC3EFE78DDE27A00B5071C9A
:10128E00EAB5061878D108E278D9F278D308E27870
:10129E00DAF278D508E278DBF208EDF278D9E2FFDF
:1012AE0078C6E4F208EFF278DAE2FF78C8E4F208E2
:0212BE00EFF24D
:0112C000220B
:0319E800DFFE22FD
:10189500D3EF9400EE940040147D6E7C00ED1D7036
:0D18A500011CED4C70F7EF1F70E61E80E394
:0118B2002213
:04140B00822E00002D
:10185400E4FEEEC39408748094805015C2A1EF3066
:10186400E704D2A08002C2A0D2A1EF25E0FF0E803F
:01187400E192
:011875002250
:1017E700E4FBEBC3940C748094805015ED25E0FD69
:1017F700EC33FCD2A1C2A130A504ED4401FD0B805E
:05180700E1AF05AE0495
:01180C0022B9
:1019A200C2B7121854C2A100000000001217E7D2F9
:0119B200B77D
:0119B3002211
:10170A007FE41219A2782EEEF208EFF2FDAC06E49D
:10171A001201D17BE67A3F799C783F120026E4FBDE
:10172A00FA7920784112012F12020A782EEEF20875
:03173A00EFF222A9
:06140F00815A01815F001B
:10176C00E4FDFFFEC2A3C2A2EDC39410748094806A
:10177C005015D2A2EF25E0FFEE33FE30A404EF4467
:09178C0001FFC2A20D80E1D2A30D
:011795002231
:1018B300D3EF9400EE940040147D727C00ED1D7014
:0D18C300011CED4C70F7EF1F70E61E80E376
:0118D00022F5
:1015C00078D1740BF212176CEF5404785EF2E2FDDE
:1015D0001313543FF2EF25E0FFEE33C4F854F0C884
:1015E00068FEEFC4540F48FF7802CEC313CE13D861
:0915F000F9FF785BEEF208EFF25E
:0115F90022CF
:03141500816600ED
:10192100759850D29CE4F587758920758DFD758B6E
:08193100FDD28ED2AFD2AC2230
:0819DD008F993099FDC2992297
:1016D60078E3EBF208EAF208E9F278E3E2FB08E2E3
:1016E600FA08E2F912061B601A78E3E2FB0808E240
:1016F600F92401F218E2FA3400F212061BFF12195D
:04170600DD80D72289
:10173D007863EBF208EAF208E9F27863E2F908E27D
:10174D00FA08E278E6C9F208EAF208E9F27B017AD2
:0F175D000079EF1210DCE94A4B6002D322C3225D
:10198E007E007F647D007B017A0079EF1207DFE431
:04199E007866F22253
:030023000215853E
:10158500C0E0C083C082C0D075D008C2AC309820FE
:10159500C2987866E224EFF582E43400F583E59994
:1015A500F0E204F2E2C39464748094804002E4F2B1
:0B15B500D2ACD0D0D082D083D0E03286
:10134D0041540D0A004F4B0D0A0041542B43504997
:10135D004E3F0D0A0052454144590041542B434D17
:10136D0047463D310D0A0041542B43534D503D31FD
:10137D00372C3136372C302C380D0A0041542B4385
:10138D005343533D2247534D220D0A0041542B43E5
:10139D004D47533D2200220D0A003E0041544400AA
:1013AD003B0D0A00000000000000000000000000DE
:1013BD000000000000000000000000000000000020
:0C13CD0000000000000000000000000014
:06141800847E00000000CC
:100F300012192178DA74FFF2087413F2087452F26D
:100F40000812069E00000BB8121017EF64014E60E5
:100F50000312179612180D78DA74FFF2087413F260
:100F6000087462F20812069E000003E878E1740A31
:100F7000F27BFF7A137957121022EF64014E60035F
:100F800012179612180D78DA74FFF2087413F2082B
:100F90007452F20812069E000003E878E1740AF227
:100FA0007BFF7A137968121022EF64014E600312FE
:100FB000179612180D78DA74FFF2087413F2087499
:100FC00052F20812069E00000BB878E1740AF27B18
:100FD000FF7A137974121022EF64014E6003121726
:100FE0009612180D78DA74FFF2087413F20874522E
:100FF000F20812069E000003E878E1740AF27BFF13
:101000007A137989121022EF64014E600312179649
:071010007F0A7E00021811A7
:0A0E1C0078D1EBF208EAF208E9F2DF
:100E260078537C017D017BFF7A1379B17E007F14B4
:100E36001205F57E007F147D007B017A017953123D
:100E460007DF78537C017D017BFF7A1379991207BE
:100E5600C278D1E2F908E2FA08E278DAC9F208EAD9
:100E6600F208E9F27B017A01795312145C78DA749C
:100E7600FFF2087413F20874A3F27B017A01795326
:100E860012145C78DA74FFF2087413F20874A7F28D
:100E96000812069E00000BB878E1740AF27B017A0C
:100EA600017953121022EF64014E600312179678EF
:100EB600D4E2F908E2FA08E278DAC9F208EAF208B6
:100EC600E9F20812069E00000BB878E1740AF2787F
:100ED600D4E2FB08E2FA08E2F9121022EF64014EAE
:100EE60060031217967E007F287D007B017A0179C8
:100EF600531207DF900153741AF0E4A3F078DA7402
:100F0600FFF2087413F2087452F20812069E0000EB
:100F1600271078E17405F27B017A017953121022C9
:090F2600EF64014E6003121796FE
:010F2F00229F
:0A1195007867EBF208EAF208E9F2CD
:10119F00087C007DFE7BFF7A1379C57E007F1412D9
:1011AF0005F57E007F147D007BFE7A00796A1207B9
:1011BF00DF786A7C007DFE7BFF7A1379A91207C264
:1011CF007867E2F908E2FA08E278DAC9F208EAF297
:1011DF0008E9F27BFE7A00796A12145C78DA74FF00
:1011EF00F2087413F20874ADF27BFE7A00796A127A
:1011FF00145C78DA74FFF2087413F2087452F20870
:10120F0012069E0000271078E1740AF27BFE7A0026
:0E121F00796A121022EF64014E6003121796D6
:01122D00229E
:1017960078DA74FFF2087413F2087452F20812062B
:1017A6009E00000064121017EF64014E70031219B8
:0A17B600EB7FC87E0012181180D6E8
:0319EB00020000F7
:0B10170078E1740AF27BFF7A13794D38
:0A10220078D7EBF208EAF208E9F2D1
:10102C0012198EE478E2F278E1E2FF08E2C39F4005
:10103C00030210D578D7E2FB08E2FA08E2F912169F
:10104C00D6787E12069E0000000078DDE2FC08E2F5
:10105C00FD08E2FE08E2FF787EE2FB08E2F908E216
:10106C00FA08E2CBF8C3120681504D7F647E001261
:10107C001811787EE2FC08E2FD08E2FE08E2246426
:10108C00FFE43EFEE43DFDE43CFC787E12069278E3
:10109C00DAE2F908E2FA08E278E6C9F208EAF208BC
:1010AC00E9F27B017A0079EF1210DCE94A4B609A85
:1010BC0012198E7E007F0122787E12069E0000009F
:0F10CC000078E2E204F202103312198EE4FEFF04
:0110DB0022F2
:04180D007F0A7E00D0
:10181100E4FDFCC3ED9FEC9E5015E4FBFA0BBB000D
:0F182100010AEB647B4A70F50DBD00010C80E4F9
:011830002295
:101876004741533A0054656D703A002564002020B4
:0F188600202020202020202020002E00202500C0
:10141E008C823137383635363737383833009CAA18
:10142E0047617320666C616D656F75742068617AB3
:10143E00617264207761726E696E670082A8000027
:0D144E0082CE000081A70081D000818E00B9
:1018ED0012197A7BFF7A187976E4FDFF1216327B96
:0C18FD00FF7A18797B7D01E4FF021632AF
:100C790012170A78A8EEF208EFF21215C078CEEE34
:100C8900F208EFF27F147E0012189512122E78D412
:100C990074FFF2087418F2087481F278A8E2FF0868
:100CA900E278D7CFF208EFF27BFE7A00798F12084B
:100CB900677F0D7E001218957BFF7A187984E4FD11
:100CC9007F061216327BFE7A00798FE4FD7F0612C9
:100CD900163278D474FFF2087418F2087481F27825
:100CE900C6E2FF08E278D7CFF208EFF27BFE7A007E
:100CF900799B12086778D474FFF2087418F20874A3
:100D090081F278C8E2FF08E278D7CFF208EFF27BE8
:100D1900FE7A0079A11208677F0D7E001218957876
:100D2900D474FFF2087418F2087481F278CEE2FFE5
:100D390008E278D7CFF208EFF27BFE7A00799512B4
:100D490008677BFE7A007995E4FD7F0C1216327BE9
:100D5900FE7A00799B7D017F061216327BFF7A1895
:100D690079907D017F081216327BFE7A0079A17D88
:100D7900017F091216327BFF7A1879927D017F0A69
:100D8900121632D378A9E2949618E29400500B789F
:100D9900C7E2945018E29400402C788EE2702D78C6
:100DA900217402F27804F2C2A778D474FEF20874AE
:100DB90000F20874AAF27BFE7A007982120E1C787E
:100DC9008E7401F28006E4788EF2D2A778CEE2FE24
:100DD90008E2FFD39450EE9400400578A77401F21D
:100DE90078A7E26401702BC3EF9423EE940050229C
:100DF90078217402F27804F2E478A7F278D474FEC8
:100E0900F2087400F20874AAF27BFE7A0079821261
:030E19000E1C228A
:10002600EC4D6011E8497017ED33EC3304600DE4D4
:10003600FCFFFEFD22E933E8330470F80202761273
:10004600024158046009E4CC248150062850090274
:10005600028028400302027DC0E0EB4A7044B9806A
:1000660006D0E0FB02026CEF4E701CBD8008EBFF71
:10007600EAFEE9FD80EBE98DF0A4FEE5F002010F52
:10008600E9CDF9EAFEEBFFEF89F0A4FCE5F0CE89B5
:10009600F0A42EFFE435F0CD89F0A42DFEE435F072
:1000A6008067EF4E7005BD80D780C3EF8BF0A4ACA0
:1000B600F0EE8BF0A42CFCE435F0F8EF8AF0A42CDB
:1000C600E5F038FCE433CB8DF0A42CFCE5F03BF8EE
:1000D600EE8AF0A42CFCE5F038F8E433CF89F0A4DE
:1000E6002CFCE5F038CF3400CE89F0A42FFFE5F0E4
:1000F6003EFEE433C98DF0A42EFEE5F039CD8AF03C
:10010600A42FFFE5F03EFEE43DFD33D0E0FB5007B3
:100116000BBB000F020280EC2CFCEF33FFEE33FE2C
:06012600ED33FD0202585A
:10012C00020280EC5D046005E8590470030202765B
:10013C00120241580460F6EC4860F2EC7004FDFECB
:10014C00FF22C860DB2481C85009C39860025006A6
:10015C0002027D9850CAF582E9294B4A7005AB82A0
:10016C0002026C75F0007C1A7880C3EF9BEE9AED5E
:10017C0099400DC3EF9BFFEE9AFEED99FDE842F01E
:10018C00DC23ACF0D0E0FFD0E0FED0E0FDAB822071
:10019C00E7101BEB60BAEC2CFCEF33FFEE33FEEDFB
:1001AC0033FD020258E803F830E705C0F075F000A3
:1001BC00EF2FFFEE33FEED33FD40B830E7C280AADF
:1001CC0075F020800E75F010800575F0087D007EAE
:1001DC00007F003392D530D503120673EC334010F8
:1001EC00EF33FFEE33FEED33FDEC33FCD5F0ED22B7
:0E01FC00E5F0247EA2D513CC92E7CDCEFF22F3
:10020A00EDD2E7CD33EC3392D524814006E4FFFEEC
:10021A00FDFC22FCE4CFCECDCC24E0501174FF804B
:10022A00EDC3CC13CCCD13CDCE13CECF13CF0470E8
:07023A00F030D5DE0206736F
:10080B00E51024D4F8E205102278D130070278D411
:10081B00E475F0011206B702061B2000EB7F2ED207
:10082B00008018EF540F2490D43440D4FF30040BC5
:10083B00EF24BFB41A0050032461FFE511600215C9
:10084B00110514E5147002051330070D78D1E4750A
:10085B00F0011206B7EF0206610217C07403D2074C
:10086B008003E4C207F51078D11206C7E4F511F541
:10087B0013F514E51160077F2012084680F57512F9
:10088B00FFC201C200C202C203C205C206C20812E5
:10089B000814FF700D3007057F00120857AF14AE18
:1008AB001322B4255FC2D5C204120814FF24D0B49E
:1008BB000A00501A75F00A781130D50508B6FF01F9
:1008CB0006C6A426F620D5047002D20380D924CF05
:1008DB00B41A00EF5004C2E5D204020B43D20180DC
:1008EB00C6D20080C0D20280BCD2D580BAD20580DD
:1008FB00B47F201208462002077401B5110040F1A5
:10090B0012080BFF12084602087ED208D206809509
:10091B0012080BFB12080BFA12080BF94A4B700664
:10092B00793A7A0C7BFF20022EE511602A7E008E2D
:10093B008275830012063460060EEE651270F0C2EB
:10094B00D5EBC0E0EAC0E0E9C0E0EE120BA3D0E0CB
:10095B00F9D0E0FAD0E0FB12061BFF60AAEBC0E077
:10096B00EAC0E0E9C0E0120846D0E02401F9D0E08B
:10097B003400FAD0E0FBE5120460DCD512D9808795
:10098B00D20280A2120B8660F7E5127001041202EC
:10099B008BA912600DE512600914F512120C2DEFE4
:1009AB0060F3EA30E702F404C3995077EAF42512B6
:1009BB000430E701E404F512800D120B8660C1EAE6
:1009CB000512251212028BEA78E7F230E701E425D3
:1009DB001204D5120420050114120BA3E4C0E0127B
:1009EB000C2D78E7E2601320E70714F212082E8033
:1009FB002204F2D0E014C0E07F0012082EE5126052
:100A0B00071208251512800B300503120825D0E0BC
:100A1B0002087ED0E00480C5120B8660A0E51204AC
:100A2B0012028B78E7EAF2E512200502600104243A
:0C0A3B0004120BA374FF04C0E0120C2D89
:100A470012082EE5122005026003120825D0E0B532
:100A570012E87F4512083878E7E27F2B30E7047FFA
:100A67002DF404C0E0120846D0E075F00A84C0F007
:100A770012082FD0E012082F02087E791080027921
:100A870008C206C2088008D2D5790A8004790AC24A
:100A9700D5E512047002F512E4FAFDFEFF12080B09
:100AA700FC7B0820011312080BFD7B1030000A1293
:100AB700080BFE12080BFF7B20EC3382D592D55032
:100AC70013C3E43000069FFFE49EFEE42001039D6C
:100AD700FDE49CFCE4CBF8C201EC700CCFCECDCC8E
:100AE700E824F8F870F38017C3EF33FFEE33FEED19
:100AF70033FDEC33FCEB33FB994002FB0FD8E9EBFA
:100B0700300105F8D0E0C448B201C0E00AEC4D4E10
:100B17004F78207B0070C2EAB5120040BCC0E012DB
:100B27000BA5D0F0D0E0200104C4C0E0C4B201C0DE
:100B3700F012082FD0F0D5F0EB02087E1206D0098C
:100B47001B530A825808EC4C08E8420A864F0A8E63
:100B5700440A8E490901430A945509C5460A2345A3
:100B6700098F470C5A5008F02D08F42E09172B0847
:100B7700F8230915200C432A08B0480000090FE59F
:100B870012B4FF0375120612080BFC12080BFD12B4
:100B9700080BFE12080BFF78E00202BA790AA2D509
:100BA700200314300509B910020404B9080104A28E
:100BB700D52006025001042002689202B5110050A8
:100BC70034C0E07F203003197F30A202720672051D
:100BD700500F120BFCC202C206C205C2087F30804A
:100BE7000F300503E9C0E0120846300503D0E0F9ED
:100BF700D0E0B511CC3005177F30B9100C1208467C
:100C07007F583004077F788003B9080312084630FD
:100C170002057F2D0208467F202008F87F2B20063B
:100C2700F322920280CF7F00B40700500524E0F83A
:100C3700E2FF22286E756C6C2900D20112080B3076
:100C470001F8C201781130D50108F60208B02D501D
:100C570043495812080B2403B405004001E4900CE3
:100C67005593120837743A120837D20375110402E4
:020C77000A82EF
:10024100E9D2E7C933E833F892D5EDD2E7CD33EC03
:0702510033FC5002B2D5227C
:10025800EC30E7100FBF000C0EBE00080DBD000407
:100268000BEB6014A2D5EB13FCED92E7FD2274FFB3
:10027800FCFDFEFF22E480F8A2D574FF13FC7D800C
:03028800E480EF20
:10028B00F920E72824F950037907E4F42402FB183A
:10029B00DBFDE224FB5014E9600DE4F218E204F2FA
:0F02AB00B40A08E4F2D9F57401F20A22C2D5228E
:1002BA00ED33EC3392D5FA602AB4FF33EDC2E77B13
:1002CA00FF60067A0279DFE4227A0279E820D5040F
:1002DA007A0279E3224E614E002B494E46002D499F
:1002EA004E4600E47A08F208DAFC7B00740722E83A
:1002FA00C0E0ECC0E0EDC0E0EEC0E0EFC0E0EA75BF
:10030A00F010A4CAABF075F04DA42BFBE435F0FC59
:10031A00EA2410FAEB34C5FBEC34D9FCEDC2E7FF52
:10032A0075F056A4F42411C5F0F434C58FF0A42A4C
:10033A00E5F03BE43CF220E7141204E5D0E0FFD0FC
:10034A00E0FED0E0FDD0E0FC12012F8014F404128C
:10035A0004E5D0E0FFD0E0FED0E0FDD0E0FC1200E2
:10036A0026D0E0F8E2FAEDD2E7CD33EC332482FB73
:10037A00E4C3CF33CFCE33CECD33CD33DBF37B07DC
:10038A0075F00A846004F2081B0AE5F0F2088FF09F
:10039A00740AA4FFACF08EF0740AA42CFEACF050E0
:1003AA00010C8DF0740AA42CFDE435F0F208DBDEB2
:0303BA00740722A3
:1003BD00020276E86480F8E933E83360110460F0F6
:1003CD00ED33EC337009E8FCE9FDEAFEEBFF2204A6
:1003DD0060DED3EB9FEA9EE99DE8C2E78CF0C2F7A1
:1003ED0095F0400CE8CCF8E9CDF9EACEFAEBCFFB6D
:1003FD0012024185D0F05804700320D5B3E8047083
:10040D00075002B2D502028092D5EC0460F7E4CC1D
:10041D00C0E0C398F8603B94186008400DD0E0FB35
:10042D00020258E4FBFAC9FC8028E830E406E4C96E
:10043D00FBE4CAFCE830E305E4C9CACBFCE8540789
:10044D006010F8C3E913F9EA13FAEB13FBEC13FC94
:10045D00D8F130F52FC3E49CFCEF9BFFEE9AFEED37
:10046D0099FDD0E0FBEF4E4D4C701222DB030202E2
:10047D007DEC2CFCEF33FFEE33FEED33FDED30E77D
:10048D00EB020258EF2BFFEE3AFEED39FDD0E0FB0B
:10049D0050130BBB0003020280ED13FDEE13FEEFB4
:0804AD0013FFEC13FC020258DE
:1004B5003F8000004120000042C80000447A00004F
:1004C500461C400047C35000497424004B189680D1
:1004D5004CBEBC205A0E1BCA6753C21C749DC5AEC8
:1004E500FB60065407601C2323120513EB54386088
:1004F500091204FF12050E120026ECF8EDF9EEFACA
:10050500EFCB22EB12050E80F1543803241C900426
:10051500B5FE93FC0EEE93FD0EEE930ECE93FF22E9
:1012CD000219C4E493A3F8E493A34003F68001F25A
:1012DD0008DFF48029E493A3F85407240CC8C33322
:1012ED00C4540F4420C8834004F456800146F6DFF1
:1012FD00E4800B01020408102040809013D9E47E95
:10130D00019360BCA3FF543F30E509541FFEE493E5
:10131D00A360010ECF54C025E060A840B8E493A3AC
:10132D00FAE493A3F8E493A3C8C582C8CAC583CAD7
:10133D00F0A3C8C582C8CAC583CADFE9DEE780BE8F
:01145B000090
:10052500E709F608DFFA8046E709F208DFFA803EB8
:1005350088828C83E709F0A3DFFA8032E309F608A5
:10054500DFFA8078E309F208DFFA807088828C830D
:10055500E309F0A3DFFA806489828A83E0A3F608C1
:10056500DFFA805889828A83E0A3F208DFFA804C9B
:1005750080D280FA80C680D4806980F28033801072
:1005850080A680EA809A80A880DA80E280CA8033DB
:1005950089828A83ECFAE493A3C8C582C8CCC58353
:1005A500CCF0A3C8C582C8CCC583CCDFE9DEE78023
:1005B5000D89828A83E493A3F608DFF9ECFAA9F0A2
:1005C500EDFB2289828A83ECFAE0A3C8C582C8CCF8
:1005D500C583CCF0A3C8C582C8CCC583CCDFEADE11
:1005E500E880DB89828A83E493A3F208DFF980CC73
:1005F50088F0EF60010E4E60C388F0ED2402B4046C
:100605000050B9F582EB2402B4040050AF23234512
:06061500822390057573BD
:10061B00BB010689828A83E0225002E722BBFE02DD
:09062B00E32289828A83E4932210
:10063400BB010CE58229F582E5833AF583E022507B
:1006440006E92582F8E622BBFE06E92582F8E222C5
:0D065400E58229F582E5833AF583E49322DF
:10066100BB010689828A83F0225002F722BBFE0178
:02067100F32272
:0E067300C3E49FFFE49EFEE49DFDE49CFC2298
:10068100EB9FF5F0EA9E42F0E99D42F0E89C45F0CF
:010691002246
:0C069200ECF208EDF208EEF208EFF222A4
:10069E00D083D082E493F208740193F2087402932B
:0906AE00F208740393F274047362
:1006B700FAE2FB0808E2F925F0F218E2CA3AF22258
:0906C700EBF208EAF208E9F22264
:1006D000D083D082F8E4937012740193700DA3A3B9
:1006E00093F8740193F5828883E4737402936860CD
:0606F000EFA3A3A380DFCD
:1017C000EFB40A07740D1217CB740A309811A89958
:1017D000B8130CC2983098FDA899C298B811F63089
:0717E00099FDC299F5992261
:10145C0078D7EBF208EAF208E9F278DDEBF208EA69
:10146C00F208E9F278D7E2FB0808E2F92401F21855
:10147C00E2FA3400F212061B70EA78D9E224FFF289
:10148C0018E234FFF278DAE2FB0808E2F92401F200
:10149C0018E2FA3400F212061BFF78D7E2FB0808B8
:1014AC00E2F92401F218E2FA3400F2EF120661704C
:0C14BC00D478DDE2FB08E2FA08E2F92235
:1006F600E709F60870FA8046E709F20870FA803EC4
:1007060088828C83E709F0A370FA807EE309F608F5
:1007160070FA8076E309F20870FA806E88828C831C
:10072600E309F0A370FA806289828A83E0A3F6085F
:1007360070FA805689828A83E0A3F20870FA804AAA
:1007460080D280FA80C680D4806580F280318010A5
:1007560080A680EA809A80A880DA80E280CA80310A
:1007660089828A83ECFAE493A3C8C582C8CCC58380
:10077600CCF0A3C8C582C8CCC583CC70E9800D89EE
:10078600828A83E493A3F60870F9ECFAA9F0EDFBEC
:100796002289828A83ECFAE0A3C8C582C8CCC583C5
:1007A600CCF0A3C8C582C8CCC583CC70EA80DD89ED
:1007B600828A83E493A3F20870F980CE88F0ED2450
:1007C60002B4040050C4F582EB2402B4040050BA0B
:0907D6002323458223900746739A
:1010DC0078E3EBF208EAF208E9F208E2FB08E2FA3C
:1010EC0008E2F912061B700302118378E3E2FB0895
:1010FC00E2FA08E2F912061B700302118E08E2F9FB
:10110C0008E2FA08E208C9F208EAF208E9F278E320
:10111C00E2F908E2FA08E278ECC9F208EAF208E926
:10112C00F278E9E2FB08E2FA08E2F912061BFF602A
:10113C002708E2FB08E2FA08E2F912061B6F7018A6
:10114C0078EBE22401F218E23400F278EEE22401AA
:10115C00F218E23400F280C978E9E2FB08E2FA08FE
:10116C00E2F912061B7002800E78E5E22401F218F7
:10117C00E23400F20210F778E3E2FB08E2FA08E24C
:09118C00F9227B007A00790022AF
:1007DF00EF4E6012EF60010EEDBB010B89828A8331
:1007EF00F0A3DFFCDEFA2289F05007F709DFFCA93E
:0C07FF00F022BBFEFCF309DFFCA9F02295
:00000001FF
